{
  "_format": "hh-sol-artifact-1",
  "contractName": "ShopychangeMarketplace",
  "sourceName": "contracts/Marketplace/ShopychangeMarketplace.sol",
  "abi": [
    {
      "inputs": [
        {
          "internalType": "uint16",
          "name": "_royalty",
          "type": "uint16"
        }
      ],
      "stateMutability": "nonpayable",
      "type": "constructor"
    },
    {
      "anonymous": false,
      "inputs": [
        {
          "indexed": false,
          "internalType": "uint256",
          "name": "cleaned",
          "type": "uint256"
        }
      ],
      "name": "MarketplaceInequalitiesCleaned",
      "type": "event"
    },
    {
      "anonymous": false,
      "inputs": [
        {
          "indexed": false,
          "internalType": "uint256",
          "name": "cleaned",
          "type": "uint256"
        }
      ],
      "name": "MarketplaceStorageCleaned",
      "type": "event"
    },
    {
      "anonymous": false,
      "inputs": [],
      "name": "MarketplaceWithdraw",
      "type": "event"
    },
    {
      "anonymous": false,
      "inputs": [
        {
          "indexed": true,
          "internalType": "address",
          "name": "_to",
          "type": "address"
        }
      ],
      "name": "MarketplaceWithdrawTo",
      "type": "event"
    },
    {
      "anonymous": false,
      "inputs": [
        {
          "indexed": true,
          "internalType": "address",
          "name": "_to",
          "type": "address"
        },
        {
          "indexed": false,
          "internalType": "uint256",
          "name": "_amount",
          "type": "uint256"
        }
      ],
      "name": "MarketplaceWithdrawToAmount",
      "type": "event"
    },
    {
      "anonymous": false,
      "inputs": [
        {
          "indexed": true,
          "internalType": "address",
          "name": "previousOwner",
          "type": "address"
        },
        {
          "indexed": true,
          "internalType": "address",
          "name": "newOwner",
          "type": "address"
        }
      ],
      "name": "OwnershipTransferred",
      "type": "event"
    },
    {
      "anonymous": false,
      "inputs": [
        {
          "indexed": true,
          "internalType": "address",
          "name": "contractAddress",
          "type": "address"
        },
        {
          "indexed": true,
          "internalType": "uint256",
          "name": "tokenId",
          "type": "uint256"
        },
        {
          "indexed": false,
          "internalType": "address",
          "name": "seller",
          "type": "address"
        },
        {
          "indexed": false,
          "internalType": "address",
          "name": "buyer",
          "type": "address"
        },
        {
          "indexed": false,
          "internalType": "uint256",
          "name": "price",
          "type": "uint256"
        }
      ],
      "name": "SaleBought",
      "type": "event"
    },
    {
      "anonymous": false,
      "inputs": [
        {
          "indexed": true,
          "internalType": "address",
          "name": "contractAddress",
          "type": "address"
        },
        {
          "indexed": true,
          "internalType": "uint256",
          "name": "tokenId",
          "type": "uint256"
        },
        {
          "indexed": false,
          "internalType": "address",
          "name": "seller",
          "type": "address"
        }
      ],
      "name": "SaleCancelled",
      "type": "event"
    },
    {
      "anonymous": false,
      "inputs": [
        {
          "indexed": true,
          "internalType": "address",
          "name": "contractAddress",
          "type": "address"
        },
        {
          "indexed": true,
          "internalType": "uint256",
          "name": "tokenId",
          "type": "uint256"
        },
        {
          "indexed": false,
          "internalType": "address",
          "name": "seller",
          "type": "address"
        },
        {
          "indexed": false,
          "internalType": "uint256",
          "name": "price",
          "type": "uint256"
        }
      ],
      "name": "SaleCreated",
      "type": "event"
    },
    {
      "anonymous": false,
      "inputs": [
        {
          "indexed": true,
          "internalType": "address",
          "name": "contractAddress",
          "type": "address"
        },
        {
          "indexed": true,
          "internalType": "uint256",
          "name": "tokenId",
          "type": "uint256"
        },
        {
          "indexed": false,
          "internalType": "address",
          "name": "seller",
          "type": "address"
        },
        {
          "indexed": false,
          "internalType": "uint256",
          "name": "previousPrice",
          "type": "uint256"
        },
        {
          "indexed": false,
          "internalType": "uint256",
          "name": "price",
          "type": "uint256"
        }
      ],
      "name": "SalePriceModified",
      "type": "event"
    },
    {
      "inputs": [
        {
          "internalType": "address",
          "name": "_contractAddress",
          "type": "address"
        },
        {
          "internalType": "uint256",
          "name": "_tokenId",
          "type": "uint256"
        }
      ],
      "name": "buy",
      "outputs": [],
      "stateMutability": "payable",
      "type": "function"
    },
    {
      "inputs": [
        {
          "internalType": "address",
          "name": "_contractAddress",
          "type": "address"
        },
        {
          "internalType": "uint256",
          "name": "_tokenId",
          "type": "uint256"
        }
      ],
      "name": "cancelSale",
      "outputs": [],
      "stateMutability": "nonpayable",
      "type": "function"
    },
    {
      "inputs": [],
      "name": "cleanInequalities",
      "outputs": [],
      "stateMutability": "nonpayable",
      "type": "function"
    },
    {
      "inputs": [],
      "name": "cleanStorage",
      "outputs": [],
      "stateMutability": "nonpayable",
      "type": "function"
    },
    {
      "inputs": [
        {
          "internalType": "address",
          "name": "_contractAddress",
          "type": "address"
        },
        {
          "internalType": "uint256",
          "name": "_tokenId",
          "type": "uint256"
        },
        {
          "internalType": "uint256",
          "name": "_price",
          "type": "uint256"
        }
      ],
      "name": "createSale",
      "outputs": [],
      "stateMutability": "nonpayable",
      "type": "function"
    },
    {
      "inputs": [],
      "name": "getMarketplaceRoyalty",
      "outputs": [
        {
          "internalType": "uint16",
          "name": "",
          "type": "uint16"
        }
      ],
      "stateMutability": "view",
      "type": "function"
    },
    {
      "inputs": [
        {
          "internalType": "uint256",
          "name": "salePrice",
          "type": "uint256"
        }
      ],
      "name": "getRoyaltyForSale",
      "outputs": [
        {
          "internalType": "uint256",
          "name": "",
          "type": "uint256"
        }
      ],
      "stateMutability": "view",
      "type": "function"
    },
    {
      "inputs": [
        {
          "internalType": "address",
          "name": "_contractAddress",
          "type": "address"
        },
        {
          "internalType": "uint256",
          "name": "_tokenId",
          "type": "uint256"
        }
      ],
      "name": "getSale",
      "outputs": [
        {
          "components": [
            {
              "internalType": "address",
              "name": "contractAddress",
              "type": "address"
            },
            {
              "internalType": "address payable",
              "name": "seller",
              "type": "address"
            },
            {
              "internalType": "uint256",
              "name": "tokenId",
              "type": "uint256"
            },
            {
              "internalType": "uint256",
              "name": "price",
              "type": "uint256"
            },
            {
              "internalType": "enum Status",
              "name": "status",
              "type": "uint8"
            }
          ],
          "internalType": "struct MarketplaceFundamental.Sale",
          "name": "",
          "type": "tuple"
        }
      ],
      "stateMutability": "view",
      "type": "function"
    },
    {
      "inputs": [],
      "name": "getSales",
      "outputs": [
        {
          "components": [
            {
              "internalType": "address",
              "name": "contractAddress",
              "type": "address"
            },
            {
              "internalType": "address payable",
              "name": "seller",
              "type": "address"
            },
            {
              "internalType": "uint256",
              "name": "tokenId",
              "type": "uint256"
            },
            {
              "internalType": "uint256",
              "name": "price",
              "type": "uint256"
            },
            {
              "internalType": "enum Status",
              "name": "status",
              "type": "uint8"
            }
          ],
          "internalType": "struct MarketplaceFundamental.Sale[]",
          "name": "",
          "type": "tuple[]"
        }
      ],
      "stateMutability": "view",
      "type": "function"
    },
    {
      "inputs": [
        {
          "internalType": "address",
          "name": "_contractAddress",
          "type": "address"
        },
        {
          "internalType": "uint256",
          "name": "_tokenId",
          "type": "uint256"
        }
      ],
      "name": "isTokenForSale",
      "outputs": [
        {
          "internalType": "bool",
          "name": "",
          "type": "bool"
        }
      ],
      "stateMutability": "view",
      "type": "function"
    },
    {
      "inputs": [
        {
          "internalType": "address",
          "name": "_contractAddress",
          "type": "address"
        },
        {
          "internalType": "uint256",
          "name": "_tokenId",
          "type": "uint256"
        },
        {
          "internalType": "uint256",
          "name": "_price",
          "type": "uint256"
        }
      ],
      "name": "modifySalePrice",
      "outputs": [],
      "stateMutability": "nonpayable",
      "type": "function"
    },
    {
      "inputs": [],
      "name": "owner",
      "outputs": [
        {
          "internalType": "address",
          "name": "",
          "type": "address"
        }
      ],
      "stateMutability": "view",
      "type": "function"
    },
    {
      "inputs": [],
      "name": "renounceOwnership",
      "outputs": [],
      "stateMutability": "nonpayable",
      "type": "function"
    },
    {
      "inputs": [
        {
          "internalType": "uint16",
          "name": "_royalty",
          "type": "uint16"
        }
      ],
      "name": "setMarketplaceRoyalty",
      "outputs": [],
      "stateMutability": "nonpayable",
      "type": "function"
    },
    {
      "inputs": [
        {
          "internalType": "address",
          "name": "newOwner",
          "type": "address"
        }
      ],
      "name": "transferOwnership",
      "outputs": [],
      "stateMutability": "nonpayable",
      "type": "function"
    },
    {
      "inputs": [],
      "name": "withdraw",
      "outputs": [],
      "stateMutability": "nonpayable",
      "type": "function"
    },
    {
      "inputs": [
        {
          "internalType": "address",
          "name": "_to",
          "type": "address"
        }
      ],
      "name": "withdrawTo",
      "outputs": [],
      "stateMutability": "nonpayable",
      "type": "function"
    },
    {
      "inputs": [
        {
          "internalType": "address",
          "name": "_to",
          "type": "address"
        },
        {
          "internalType": "uint256",
          "name": "_amount",
          "type": "uint256"
        }
      ],
      "name": "withdrawToAmount",
      "outputs": [],
      "stateMutability": "nonpayable",
      "type": "function"
    },
    {
      "stateMutability": "payable",
      "type": "receive"
    }
  ],
  "bytecode": "0x60806040523480156200001157600080fd5b50604051620021a8380380620021a88339810160408190526200003491620000b9565b80620000403362000067565b6002805461ffff909216600160a01b0261ffff60a01b1990921691909117905550620000e6565b600280546001600160a01b038381166001600160a01b0319831681179093556040519116919082907f8be0079c531659141344cd1fd0a4f28419497f9722a3daafe3b4186f6b6457e090600090a35050565b600060208284031215620000cc57600080fd5b815161ffff81168114620000df57600080fd5b9392505050565b6120b280620000f66000396000f3fe60806040526004361061010d5760003560e01c806373a877a6116100955780638da5cb5b116100645780638da5cb5b146102cf5780639f161af2146102f7578063cce7ec1314610317578063f25378971461032a578063f2fde38b1461034a57600080fd5b806373a877a6146102575780637e84d36b146102775780638767494e1461028c57806388187f88146102ba57600080fd5b80631c046f9e116100dc5780631c046f9e146101c0578063225c3131146101e05780633ccfd60b1461020d578063715018a61461022257806372b0d90c1461023757600080fd5b806301aea999146101195780630d83304c1461014e57806316f3a95b14610170578063191b87691461019257600080fd5b3661011457005b600080fd5b34801561012557600080fd5b50610139610134366004611d36565b61036a565b60405190151581526020015b60405180910390f35b34801561015a57600080fd5b506101636103af565b6040516101459190611dd4565b34801561017c57600080fd5b5061019061018b366004611d36565b61040f565b005b34801561019e57600080fd5b50600254600160a01b900461ffff1660405161ffff9091168152602001610145565b3480156101cc57600080fd5b506101906101db366004611e22565b610592565b3480156101ec57600080fd5b506102006101fb366004611d36565b61061d565b6040516101459190611e4d565b34801561021957600080fd5b506101906106e3565b34801561022e57600080fd5b50610190610770565b34801561024357600080fd5b50610190610252366004611e5b565b610784565b34801561026357600080fd5b50610190610272366004611d36565b6108bd565b34801561028357600080fd5b50610190610a57565b34801561029857600080fd5b506102ac6102a7366004611e78565b610bf6565b604051908152602001610145565b3480156102c657600080fd5b50610190610c1f565b3480156102db57600080fd5b506002546040516001600160a01b039091168152602001610145565b34801561030357600080fd5b50610190610312366004611e91565b610e00565b610190610325366004611d36565b611279565b34801561033657600080fd5b50610190610345366004611e91565b611655565b34801561035657600080fd5b50610190610365366004611e5b565b611814565b600080610377848461188d565b60008181526020819052604090209091506003600482015460ff1660038111156103a3576103a3611d62565b14925050505b92915050565b606061040a600180548060200260200160405190810160405280929190818152602001828054801561040057602002820191906000526020600020905b8154815260200190600101908083116103ec575b50505050506118d4565b905090565b8181600061041d838361188d565b60008181526020819052604090206001810154919250906001600160a01b031633148061045457506002546001600160a01b031633145b6104b15760405162461bcd60e51b8152602060048201526024808201527f4f6e6c792073656c6c6572206f722061646d696e2063616e2063616e63656c2060448201526373616c6560e01b60648201526084015b60405180910390fd5b60006104bd878761188d565b60008181526020819052604090206001810154919250906001600160a01b03166104f95760405162461bcd60e51b81526004016104a890611ec6565b6003600482015460ff16600381111561051457610514611d62565b146105315760405162461bcd60e51b81526004016104a890611ef3565b60048101805460ff19166001179055866001600160a01b0389167f28678d85fef7e51e1b47942f0ca4118f97e380fd2d24e1ae15dd0950098ab458336040516001600160a01b03909116815260200160405180910390a35050505050505050565b61059a611a39565b6127108161ffff1611156105fb5760405162461bcd60e51b815260206004820152602260248201527f526f79616c74792063616e27742062652067726561746572207468616e203130604482015261302560f01b60648201526084016104a8565b6002805461ffff909216600160a01b0261ffff60a01b19909216919091179055565b61064c6040805160a0810182526000808252602082018190529181018290526060810182905290608082015290565b6000610658848461188d565b60008181526020818152604091829020825160a08101845281546001600160a01b03908116825260018301541692810192909252600281015492820192909252600380830154606083015260048301549394509092608084019160ff909116908111156106c7576106c7611d62565b60038111156106d8576106d8611d62565b905250949350505050565b6106eb611a39565b6000471161070b5760405162461bcd60e51b81526004016104a890611f22565b6002546040516001600160a01b03909116904780156108fc02916000818181858888f19350505050158015610744573d6000803e3d6000fd5b506040517fe1135a98b0231c10c35328a2d71f589df00bc596e2a3197d208653ca04b7962290600090a1565b610778611a39565b6107826000611a93565b565b61078c611a39565b600047116107ac5760405162461bcd60e51b81526004016104a890611f22565b803b156107fb5760405162461bcd60e51b815260206004820152601a60248201527f43616e277420776974686472617720746f20636f6e747261637400000000000060448201526064016104a8565b61080481611ae5565b6108505760405162461bcd60e51b815260206004820152601d60248201527f54686520616464726573732063616e277420726563656976652045544800000060448201526064016104a8565b6040516001600160a01b038216904780156108fc02916000818181858888f19350505050158015610885573d6000803e3d6000fd5b506040516001600160a01b038216907fcd0f9221b231e13fbee5fc13eb52545f1bfae4376877176c79942334acd6f03790600090a250565b6108c5611a39565b600047116108e55760405162461bcd60e51b81526004016104a890611f22565b478111156109355760405162461bcd60e51b815260206004820152601d60248201527f416d6f756e7420697320626967676572207468616e2062616c616e636500000060448201526064016104a8565b813b156109845760405162461bcd60e51b815260206004820152601a60248201527f43616e277420776974686472617720746f20636f6e747261637400000000000060448201526064016104a8565b61098d82611ae5565b6109d95760405162461bcd60e51b815260206004820152601d60248201527f54686520616464726573732063616e277420726563656976652045544800000060448201526064016104a8565b6040516001600160a01b0383169082156108fc029083906000818181858888f19350505050158015610a0f573d6000803e3d6000fd5b50816001600160a01b03167f314f50dec49c9f2b8befb5f50b414732f4cac5e6b413f4f0bc8321cf0ca622f982604051610a4b91815260200190565b60405180910390a25050565b610a5f611a39565b6000805b600154821015610bbe57600060018381548110610a8257610a82611f52565b60009182526020808320909101548083529082905260409091209091506002600482015460ff166003811115610aba57610aba611d62565b1480610ade57506001600482015460ff166003811115610adc57610adc611d62565b145b15610ba95760018054610af2908290611f7e565b81548110610b0257610b02611f52565b906000526020600020015460018581548110610b2057610b20611f52565b6000918252602090912001556001805480610b3d57610b3d611f91565b6000828152602080822083016000199081018390559092019092558382528190526040812080546001600160a01b031990811682556001820180549091169055600281018290556003810191909155600401805460ff1916905582610ba181611fa7565b935050610bb7565b83610bb381611fa7565b9450505b5050610a63565b6040518181527f9c5262f320e0d1e745ba2d5347ba7143e2d565fb7283de43d070ecc43a6cf140906020015b60405180910390a15050565b60025460009061271090610c1590600160a01b900461ffff1684611fc0565b6103a99190611fd7565b610c27611a39565b6000805b600154821015610dd057600060018381548110610c4a57610c4a611f52565b600091825260208083209190910154808352908290526040918290208054600282015493516331a9108f60e11b81526004810194909452919350916001600160a01b03909116908190636352211e90602401602060405180830381865afa158015610cb9573d6000803e3d6000fd5b505050506040513d601f19601f82011682018060405250810190610cdd9190611ff9565b60018301546001600160a01b03908116911614610dba5760018054610d03908290611f7e565b81548110610d1357610d13611f52565b906000526020600020015460018681548110610d3157610d31611f52565b6000918252602090912001556001805480610d4e57610d4e611f91565b6000828152602080822083016000199081018390559092019092558482528190526040812080546001600160a01b031990811682556001820180549091169055600281018290556003810191909155600401805460ff1916905583610db281611fa7565b945050610dc8565b84610dc481611fa7565b9550505b505050610c2b565b6040518181527f79886fecd7b4b09e2b5fbd79bee3e4ce2b2ed81e9e5ea2d3952a86f66d29e77090602001610bea565b60008111610e505760405162461bcd60e51b815260206004820152601f60248201527f5072696365206d7573742062652067726561746572207468616e207a65726f0060448201526064016104a8565b6000610e5c848461188d565b9050600360008281526020819052604090206004015460ff166003811115610e8657610e86611d62565b03610ed35760405162461bcd60e51b815260206004820152601960248201527f546f6b656e20697320616c726561647920666f722073616c650000000000000060448201526064016104a8565b60405163020604bf60e21b815260048101849052849030906001600160a01b0383169063081812fc90602401602060405180830381865afa158015610f1c573d6000803e3d6000fd5b505050506040513d601f19601f82011682018060405250810190610f409190611ff9565b6001600160a01b03161480610fce57506001600160a01b03811663e985e9c5336040516001600160e01b031960e084901b1681526001600160a01b039091166004820152306024820152604401602060405180830381865afa158015610faa573d6000803e3d6000fd5b505050506040513d601f19601f82011682018060405250810190610fce9190612016565b6110335760405162461bcd60e51b815260206004820152603060248201527f53686f70796368616e6765206973206e6f7420617070726f76656420746f206d60448201526f30b730b3b2903a3434b9903a37b5b2b760811b60648201526084016104a8565b336040516331a9108f60e11b8152600481018690526001600160a01b0391821691831690636352211e90602401602060405180830381865afa15801561107d573d6000803e3d6000fd5b505050506040513d601f19601f820116820180604052508101906110a19190611ff9565b6001600160a01b0316146111035760405162461bcd60e51b815260206004820152602360248201527f596f7520617265206e6f7420746865206f776e6572206f66207468697320746f60448201526235b2b760e91b60648201526084016104a8565b60008281526020819052604081206004015460ff16600381111561112957611129611d62565b03611163576001805480820182556000919091527fb10e2d527612073b26eecdfd717e6a320cf44b4afac2b0732d9fcbe2b7fa0cf6018290555b6040518060a00160405280866001600160a01b031681526020016111843390565b6001600160a01b0316815260208101869052604081018590526060016003905260008381526020818152604091829020835181546001600160a01b039182166001600160a01b031991821617835592850151600180840180549290931691909416179055918301516002830155606083015160038084019190915560808401516004840180549193909260ff1990921691849081111561122657611226611d62565b021790555050604080513381526020810186905281518793506001600160a01b038916927fab1974f8abd2912b6b20b14ee11e640214e139fba8f368d46e21eaf0ce3e5d65928290030190a35050505050565b6000611285838361188d565b60008181526020819052604090206001810154919250906001600160a01b03166112c15760405162461bcd60e51b81526004016104a890611ec6565b6003600482015460ff1660038111156112dc576112dc611d62565b146112f95760405162461bcd60e51b81526004016104a890611ef3565b60018101546001600160a01b031633036113555760405162461bcd60e51b815260206004820152601b60248201527f596f752063616e6e6f742062757920796f7572206f776e204e4654000000000060448201526064016104a8565b805460028201546040516331a9108f60e11b815260048101919091526001600160a01b03909116908190636352211e90602401602060405180830381865afa1580156113a5573d6000803e3d6000fd5b505050506040513d601f19601f820116820180604052508101906113c99190611ff9565b60018301546001600160a01b0390811691161461143b5760405162461bcd60e51b815260206004820152602a60248201527f53656c6c6572206973206e6f206c6f6e67657220746865206f776e6572206f66604482015269103a3432903a37b5b2b760b11b60648201526084016104a8565b8160030154341461149a5760405162461bcd60e51b8152602060048201526024808201527f5072696365206973206e6f7420657175616c20746f207468652073616c6520706044820152637269636560e01b60648201526084016104a8565b60018201546001600160a01b03828116916342842e0e91163360028601546040516001600160e01b031960e086901b1681526001600160a01b0393841660048201529290911660248301526044820152606401600060405180830381600087803b15801561150757600080fd5b505af115801561151b573d6000803e3d6000fd5b50506040805160a08101825285546001600160a01b0390811682526001870154166020820152600286015491810191909152600380860154606083015260048601546000945061159e93508691608084019160ff169081111561158057611580611d62565b600381111561159157611591611d62565b9052506003850154611b56565b60018401546040519192506001600160a01b03169082156108fc029083906000818181858888f193505050501580156115db573d6000803e3d6000fd5b50600483018054600260ff199091168117909155830154835460018501546003860154604080516001600160a01b039384168152336020820152808201929092525191909216917f3340ce1247a24ae309c442993a800161269826bf5198cae3d8b549505758a8e3919081900360600190a3505050505050565b82826000611663838361188d565b6000818152602081905260409020600101549091506001600160a01b031633146116da5760405162461bcd60e51b815260206004820152602260248201527f4f6e6c792073656c6c65722063616e2063616c6c20746869732066756e63746960448201526137b760f11b60648201526084016104a8565b60006116e6878761188d565b60008181526020819052604090206001810154919250906001600160a01b03166117225760405162461bcd60e51b81526004016104a890611ec6565b6003600482015460ff16600381111561173d5761173d611d62565b1461175a5760405162461bcd60e51b81526004016104a890611ef3565b600086116117aa5760405162461bcd60e51b815260206004820152601f60248201527f5072696365206d7573742062652067726561746572207468616e207a65726f0060448201526064016104a8565b60038101805490879055876001600160a01b038a167f3ab77a189fdcb9b24aae8d16ae74975668d0089c90a8134e3bd412ce3e438ffc33604080516001600160a01b0390921682526020820186905281018b905260600160405180910390a3505050505050505050565b61181c611a39565b6001600160a01b0381166118815760405162461bcd60e51b815260206004820152602660248201527f4f776e61626c653a206e6577206f776e657220697320746865207a65726f206160448201526564647265737360d01b60648201526084016104a8565b61188a81611a93565b50565b6040516bffffffffffffffffffffffff19606084901b1660208201526034810182905260009060540160405160208183030381529060405280519060200120905092915050565b60606000825167ffffffffffffffff8111156118f2576118f2612038565b60405190808252806020026020018201604052801561195257816020015b61193f6040805160a0810182526000808252602082018190529181018290526060810182905290608082015290565b8152602001906001900390816119105790505b50905060005b8351811015611a325760008085838151811061197657611976611f52565b6020908102919091018101518252818101929092526040908101600020815160a08101835281546001600160a01b0390811682526001830154169381019390935260028101549183019190915260038082015460608401526004820154608084019160ff909116908111156119ed576119ed611d62565b60038111156119fe576119fe611d62565b81525050828281518110611a1457611a14611f52565b60200260200101819052508080611a2a90611fa7565b915050611958565b5092915050565b6002546001600160a01b031633146107825760405162461bcd60e51b815260206004820181905260248201527f4f776e61626c653a2063616c6c6572206973206e6f7420746865206f776e657260448201526064016104a8565b600280546001600160a01b038381166001600160a01b0319831681179093556040519116919082907f8be0079c531659141344cd1fd0a4f28419497f9722a3daafe3b4186f6b6457e090600090a35050565b6000806000836001600160a01b0316600080604051600060405180830381858888f193505050503d8060008114611b38576040519150601f19603f3d011682016040523d82523d6000602084013e611b3d565b606091505b5091509150818015611b4e57508051155b949350505050565b600080611b638484611b6f565b9050611b4e8482611bc2565b600080611b7b83610bf6565b90506000611b898285611f7e565b604051909150309083156108fc029084906000818181858888f19350505050158015611bb9573d6000803e3d6000fd5b50949350505050565b81516040516301ffc9a760e01b815263152a902d60e11b600482015260009182916001600160a01b03909116906301ffc9a790602401602060405180830381865afa158015611c15573d6000803e3d6000fd5b505050506040513d601f19601f82011682018060405250810190611c399190612016565b905080611c4957829150506103a9565b8351604080860151905163152a902d60e11b815260048101919091526024810185905260009081906001600160a01b03841690632a55205a906044016040805180830381865afa158015611ca1573d6000803e3d6000fd5b505050506040513d601f19601f82011682018060405250810190611cc5919061204e565b90925090506000611cd68288611f7e565b90508115611d16576040516001600160a01b0384169083156108fc029084906000818181858888f19350505050158015611d14573d6000803e3d6000fd5b505b979650505050505050565b6001600160a01b038116811461188a57600080fd5b60008060408385031215611d4957600080fd5b8235611d5481611d21565b946020939093013593505050565b634e487b7160e01b600052602160045260246000fd5b60018060a01b03808251168352806020830151166020840152506040810151604083015260608101516060830152608081015160048110611dc957634e487b7160e01b600052602160045260246000fd5b806080840152505050565b6020808252825182820181905260009190848201906040850190845b81811015611e1657611e03838551611d78565b9284019260a09290920191600101611df0565b50909695505050505050565b600060208284031215611e3457600080fd5b813561ffff81168114611e4657600080fd5b9392505050565b60a081016103a98284611d78565b600060208284031215611e6d57600080fd5b8135611e4681611d21565b600060208284031215611e8a57600080fd5b5035919050565b600080600060608486031215611ea657600080fd5b8335611eb181611d21565b95602085013595506040909401359392505050565b60208082526013908201527214d85b1948191bd95cc81b9bdd08195e1a5cdd606a1b604082015260600190565b602080825260159082015274546f6b656e206973206e6f7420666f722073616c6560581b604082015260600190565b6020808252601690820152754e6f2062616c616e636520746f20776974686472617760501b604082015260600190565b634e487b7160e01b600052603260045260246000fd5b634e487b7160e01b600052601160045260246000fd5b818103818111156103a9576103a9611f68565b634e487b7160e01b600052603160045260246000fd5b600060018201611fb957611fb9611f68565b5060010190565b80820281158282048414176103a9576103a9611f68565b600082611ff457634e487b7160e01b600052601260045260246000fd5b500490565b60006020828403121561200b57600080fd5b8151611e4681611d21565b60006020828403121561202857600080fd5b81518015158114611e4657600080fd5b634e487b7160e01b600052604160045260246000fd5b6000806040838503121561206157600080fd5b825161206c81611d21565b602093909301519294929350505056fea26469706673582212208628a661b8368e7dadde557b4342cd8d61f0963eaff6143eda7f7b0e292d7f1364736f6c63430008120033",
  "linkReferences": {},
  "deployedLinkReferences": {}
}