{
  "_format": "hh-sol-artifact-1",
  "contractName": "ERC2981MultiReceiver",
  "sourceName": "contracts/RevenueShare/ERC2981MultiReceiver.sol",
  "abi": [
    {
      "inputs": [
        {
          "internalType": "address[]",
          "name": "_royaltyReceiver",
          "type": "address[]"
        },
        {
          "internalType": "uint96[]",
          "name": "_royaltyFraction",
          "type": "uint96[]"
        }
      ],
      "stateMutability": "nonpayable",
      "type": "constructor"
    },
    {
      "anonymous": false,
      "inputs": [
        {
          "indexed": true,
          "internalType": "address",
          "name": "previousOwner",
          "type": "address"
        },
        {
          "indexed": true,
          "internalType": "address",
          "name": "newOwner",
          "type": "address"
        }
      ],
      "name": "OwnershipTransferred",
      "type": "event"
    },
    {
      "inputs": [],
      "name": "IERC2981MultiReceiver_ID",
      "outputs": [
        {
          "internalType": "bytes4",
          "name": "",
          "type": "bytes4"
        }
      ],
      "stateMutability": "view",
      "type": "function"
    },
    {
      "inputs": [],
      "name": "IERC2981_ID",
      "outputs": [
        {
          "internalType": "bytes4",
          "name": "",
          "type": "bytes4"
        }
      ],
      "stateMutability": "view",
      "type": "function"
    },
    {
      "inputs": [],
      "name": "deleteDefaultRoyalty",
      "outputs": [],
      "stateMutability": "nonpayable",
      "type": "function"
    },
    {
      "inputs": [],
      "name": "hasDefaultPaymentSplitter",
      "outputs": [
        {
          "internalType": "bool",
          "name": "",
          "type": "bool"
        }
      ],
      "stateMutability": "view",
      "type": "function"
    },
    {
      "inputs": [
        {
          "internalType": "uint256",
          "name": "_tokenId",
          "type": "uint256"
        }
      ],
      "name": "hasPaymentSplitter",
      "outputs": [
        {
          "internalType": "bool",
          "name": "",
          "type": "bool"
        }
      ],
      "stateMutability": "view",
      "type": "function"
    },
    {
      "inputs": [
        {
          "internalType": "uint256",
          "name": "_tokenId",
          "type": "uint256"
        }
      ],
      "name": "hasPersonalizedRoyalties",
      "outputs": [
        {
          "internalType": "bool",
          "name": "",
          "type": "bool"
        }
      ],
      "stateMutability": "view",
      "type": "function"
    },
    {
      "inputs": [],
      "name": "owner",
      "outputs": [
        {
          "internalType": "address",
          "name": "",
          "type": "address"
        }
      ],
      "stateMutability": "view",
      "type": "function"
    },
    {
      "inputs": [],
      "name": "renounceOwnership",
      "outputs": [],
      "stateMutability": "nonpayable",
      "type": "function"
    },
    {
      "inputs": [
        {
          "internalType": "uint256",
          "name": "_tokenId",
          "type": "uint256"
        }
      ],
      "name": "resetTokenRoyalty",
      "outputs": [],
      "stateMutability": "nonpayable",
      "type": "function"
    },
    {
      "inputs": [
        {
          "internalType": "uint256",
          "name": "tokenId",
          "type": "uint256"
        },
        {
          "internalType": "uint256",
          "name": "salePrice",
          "type": "uint256"
        }
      ],
      "name": "royaltyInfo",
      "outputs": [
        {
          "internalType": "address",
          "name": "",
          "type": "address"
        },
        {
          "internalType": "uint256",
          "name": "",
          "type": "uint256"
        }
      ],
      "stateMutability": "view",
      "type": "function"
    },
    {
      "inputs": [
        {
          "internalType": "address[]",
          "name": "_royaltyReceiver",
          "type": "address[]"
        },
        {
          "internalType": "uint96[]",
          "name": "_royaltyFraction",
          "type": "uint96[]"
        }
      ],
      "name": "setDefaultRoyalty",
      "outputs": [],
      "stateMutability": "nonpayable",
      "type": "function"
    },
    {
      "inputs": [
        {
          "internalType": "uint256",
          "name": "_tokenId",
          "type": "uint256"
        },
        {
          "internalType": "address[]",
          "name": "_royaltyReceiver",
          "type": "address[]"
        },
        {
          "internalType": "uint96[]",
          "name": "_royaltyFraction",
          "type": "uint96[]"
        }
      ],
      "name": "setTokenRoyalty",
      "outputs": [],
      "stateMutability": "nonpayable",
      "type": "function"
    },
    {
      "inputs": [
        {
          "internalType": "bytes4",
          "name": "interfaceId",
          "type": "bytes4"
        }
      ],
      "name": "supportsInterface",
      "outputs": [
        {
          "internalType": "bool",
          "name": "",
          "type": "bool"
        }
      ],
      "stateMutability": "view",
      "type": "function"
    },
    {
      "inputs": [
        {
          "internalType": "address",
          "name": "newOwner",
          "type": "address"
        }
      ],
      "name": "transferOwnership",
      "outputs": [],
      "stateMutability": "nonpayable",
      "type": "function"
    }
  ],
  "bytecode": "0x60806040523480156200001157600080fd5b5060405162003a6438038062003a64833981016040819052620000349162000447565b6200003f3362000053565b6200004b8282620000a3565b50506200063d565b600080546001600160a01b038381166001600160a01b0319831681178455604051919092169283917f8be0079c531659141344cd1fd0a4f28419497f9722a3daafe3b4186f6b6457e09190a35050565b620000ad620001dd565b815160010362000111576200010382600081518110620000d157620000d162000525565b602002602001015182600081518110620000ef57620000ef62000525565b60200260200101516200023f60201b60201c565b6005805460ff191690555050565b600182511115620001d9576000805b8351816001600160601b031610156200017d5782816001600160601b03168151811062000151576200015162000525565b60200260200101518262000166919062000551565b91508062000174816200057b565b91505062000120565b5060008383604051620001909062000340565b6200019d929190620005ac565b604051809103906000f080158015620001ba573d6000803e3d6000fd5b509050620001c981836200023f565b50506005805460ff191660011790555b5050565b6000546001600160a01b031633146200023d5760405162461bcd60e51b815260206004820181905260248201527f4f776e61626c653a2063616c6c6572206973206e6f7420746865206f776e657260448201526064015b60405180910390fd5b565b6127106001600160601b0382161115620002af5760405162461bcd60e51b815260206004820152602a60248201527f455243323938313a20726f79616c7479206665652077696c6c206578636565646044820152692073616c65507269636560b01b606482015260840162000234565b6001600160a01b038216620003075760405162461bcd60e51b815260206004820152601960248201527f455243323938313a20696e76616c696420726563656976657200000000000000604482015260640162000234565b604080518082019091526001600160a01b039092168083526001600160601b039091166020909201829052600160a01b90910217600155565b6112e4806200278083390190565b634e487b7160e01b600052604160045260246000fd5b604051601f8201601f191681016001600160401b03811182821017156200038f576200038f6200034e565b604052919050565b60006001600160401b03821115620003b357620003b36200034e565b5060051b60200190565b600082601f830112620003cf57600080fd5b81516020620003e8620003e28362000397565b62000364565b82815260059290921b840181019181810190868411156200040857600080fd5b8286015b848110156200043c5780516001600160601b03811681146200042e5760008081fd5b83529183019183016200040c565b509695505050505050565b600080604083850312156200045b57600080fd5b82516001600160401b03808211156200047357600080fd5b818501915085601f8301126200048857600080fd5b815160206200049b620003e28362000397565b82815260059290921b84018101918181019089841115620004bb57600080fd5b948201945b83861015620004f25785516001600160a01b0381168114620004e25760008081fd5b82529482019490820190620004c0565b918801519196509093505050808211156200050c57600080fd5b506200051b85828601620003bd565b9150509250929050565b634e487b7160e01b600052603260045260246000fd5b634e487b7160e01b600052601160045260246000fd5b6001600160601b038181168382160190808211156200057457620005746200053b565b5092915050565b60006001600160601b038281166002600160601b03198101620005a257620005a26200053b565b6001019392505050565b604080825283519082018190526000906020906060840190828701845b82811015620005f05781516001600160a01b031684529284019290840190600101620005c9565b5050508381038285015284518082528583019183019060005b81811015620006305783516001600160601b03168352928401929184019160010162000609565b5090979650505050505050565b612133806200064d6000396000f3fe60806040523480156200001157600080fd5b5060043610620000fd5760003560e01c80638da5cb5b1162000097578063aa1b103f116200006e578063aa1b103f1462000230578063b794f1e7146200023a578063e435e6ab1462000246578063f2fde38b146200026c57600080fd5b80638da5cb5b14620001ee5780638e938efe146200020a57806395d0a8aa146200022157600080fd5b8063778865ac11620000d8578063778865ac1462000171578063787d491d146200019a5780637f7c75a214620001b15780638a616bc014620001d757600080fd5b806301ffc9a714620001025780632a55205a146200012e578063715018a61462000165575b600080fd5b620001196200011336600462000992565b62000283565b60405190151581526020015b60405180910390f35b620001456200013f366004620009c5565b620002b1565b604080516001600160a01b03909316835260208301919091520162000125565b6200016f62000362565b005b62000180637d24ef7960e11b81565b6040516001600160e01b0319909116815260200162000125565b6200016f620001ab36600462000b6b565b6200037a565b62000119620001c236600462000bd6565b60009081526004602052604090205460ff1690565b6200016f620001e836600462000bd6565b620004ae565b6000546040516001600160a01b03909116815260200162000125565b6200016f6200021b36600462000bf0565b620004ef565b6200018063152a902d60e11b81565b6200016f6200066e565b60055460ff1662000119565b620001196200025736600462000bd6565b60009081526003602052604090205460ff1690565b6200016f6200027d36600462000c64565b6200068f565b60006001600160e01b03198216637d24ef7960e11b1480620002ab5750620002ab8262000712565b92915050565b60008281526002602090815260408083208151808301909252546001600160a01b038116808352600160a01b9091046001600160601b0316928201929092528291620003275750604080518082019091526001546001600160a01b0381168252600160a01b90046001600160601b031660208201525b60208101516000906127109062000348906001600160601b03168762000c98565b62000354919062000cb2565b915196919550909350505050565b6200036c62000749565b620003786000620007a5565b565b6200038462000749565b8151600103620003e257620003d482600081518110620003a857620003a862000cd5565b602002602001015182600081518110620003c657620003c662000cd5565b6020026020010151620007f5565b6005805460ff191690555050565b600182511115620004aa576000805b8351816001600160601b031610156200044e5782816001600160601b03168151811062000422576200042262000cd5565b60200260200101518262000437919062000ceb565b915080620004458162000d15565b915050620003f1565b5060008383604051620004619062000984565b6200046e92919062000d3e565b604051809103906000f0801580156200048b573d6000803e3d6000fd5b5090506200049a8183620007f5565b50506005805460ff191660011790555b5050565b620004b862000749565b600090815260026020908152604080832083905560038252808320805460ff19908116909155600490925290912080549091169055565b620004f962000749565b81516001036200057c576200054a83836000815181106200051e576200051e62000cd5565b6020026020010151836000815181106200053c576200053c62000cd5565b6020026020010151620008b4565b50506000908152600360209081526040808320805460ff19908116909155600490925290912080549091166001179055565b60018251111562000669576000805b8351816001600160601b03161015620005e85782816001600160601b031681518110620005bc57620005bc62000cd5565b602002602001015182620005d1919062000ceb565b915080620005df8162000d15565b9150506200058b565b5060008383604051620005fb9062000984565b6200060892919062000d3e565b604051809103906000f08015801562000625573d6000803e3d6000fd5b50905062000635858284620008b4565b505060008381526003602090815260408083208054600160ff19918216811790925560049093529220805490911690911790555b505050565b6200067862000749565b620006836000600155565b6005805460ff19169055565b6200069962000749565b6001600160a01b038116620007045760405162461bcd60e51b815260206004820152602660248201527f4f776e61626c653a206e6577206f776e657220697320746865207a65726f206160448201526564647265737360d01b60648201526084015b60405180910390fd5b6200070f81620007a5565b50565b60006001600160e01b0319821663152a902d60e11b1480620002ab57506301ffc9a760e01b6001600160e01b0319831614620002ab565b6000546001600160a01b03163314620003785760405162461bcd60e51b815260206004820181905260248201527f4f776e61626c653a2063616c6c6572206973206e6f7420746865206f776e65726044820152606401620006fb565b600080546001600160a01b038381166001600160a01b0319831681178455604051919092169283917f8be0079c531659141344cd1fd0a4f28419497f9722a3daafe3b4186f6b6457e09190a35050565b6127106001600160601b0382161115620008235760405162461bcd60e51b8152600401620006fb9062000dcf565b6001600160a01b0382166200087b5760405162461bcd60e51b815260206004820152601960248201527f455243323938313a20696e76616c6964207265636569766572000000000000006044820152606401620006fb565b604080518082019091526001600160a01b039092168083526001600160601b039091166020909201829052600160a01b90910217600155565b6127106001600160601b0382161115620008e25760405162461bcd60e51b8152600401620006fb9062000dcf565b6001600160a01b0382166200093a5760405162461bcd60e51b815260206004820152601b60248201527f455243323938313a20496e76616c696420706172616d657465727300000000006044820152606401620006fb565b6040805180820182526001600160a01b0393841681526001600160601b0392831660208083019182526000968752600290529190942093519051909116600160a01b029116179055565b6112e48062000e1a83390190565b600060208284031215620009a557600080fd5b81356001600160e01b031981168114620009be57600080fd5b9392505050565b60008060408385031215620009d957600080fd5b50508035926020909101359150565b634e487b7160e01b600052604160045260246000fd5b604051601f8201601f1916810167ffffffffffffffff8111828210171562000a2a5762000a2a620009e8565b604052919050565b600067ffffffffffffffff82111562000a4f5762000a4f620009e8565b5060051b60200190565b80356001600160a01b038116811462000a7157600080fd5b919050565b600082601f83011262000a8857600080fd5b8135602062000aa162000a9b8362000a32565b620009fe565b82815260059290921b8401810191818101908684111562000ac157600080fd5b8286015b8481101562000ae75762000ad98162000a59565b835291830191830162000ac5565b509695505050505050565b600082601f83011262000b0457600080fd5b8135602062000b1762000a9b8362000a32565b82815260059290921b8401810191818101908684111562000b3757600080fd5b8286015b8481101562000ae75780356001600160601b038116811462000b5d5760008081fd5b835291830191830162000b3b565b6000806040838503121562000b7f57600080fd5b823567ffffffffffffffff8082111562000b9857600080fd5b62000ba68683870162000a76565b9350602085013591508082111562000bbd57600080fd5b5062000bcc8582860162000af2565b9150509250929050565b60006020828403121562000be957600080fd5b5035919050565b60008060006060848603121562000c0657600080fd5b83359250602084013567ffffffffffffffff8082111562000c2657600080fd5b62000c348783880162000a76565b9350604086013591508082111562000c4b57600080fd5b5062000c5a8682870162000af2565b9150509250925092565b60006020828403121562000c7757600080fd5b620009be8262000a59565b634e487b7160e01b600052601160045260246000fd5b8082028115828204841417620002ab57620002ab62000c82565b60008262000cd057634e487b7160e01b600052601260045260246000fd5b500490565b634e487b7160e01b600052603260045260246000fd5b6001600160601b0381811683821601908082111562000d0e5762000d0e62000c82565b5092915050565b60006001600160601b0380831681810362000d345762000d3462000c82565b6001019392505050565b604080825283519082018190526000906020906060840190828701845b8281101562000d825781516001600160a01b03168452928401929084019060010162000d5b565b5050508381038285015284518082528583019183019060005b8181101562000dc25783516001600160601b03168352928401929184019160010162000d9b565b5090979650505050505050565b6020808252602a908201527f455243323938313a20726f79616c7479206665652077696c6c206578636565646040820152692073616c65507269636560b01b60608201526080019056fe60806040523480156200001157600080fd5b50604051620012e4380380620012e48339810160408190526200003491620004b0565b6200003f336200013d565b8051825114620000ad576040805162461bcd60e51b8152602060048201526024810191909152600080516020620012c483398151915260448201527f697665727320616e6420536861726573206c656e677468206d69736d6174636860648201526084015b60405180910390fd5b60005b8251816001600160601b0316101562000134576200011f83826001600160601b031681518110620000e557620000e56200058e565b602002602001015183836001600160601b0316815181106200010b576200010b6200058e565b60200260200101516200018d60201b60201c565b806200012b81620005ba565b915050620000b0565b50505062000615565b600080546001600160a01b038381166001600160a01b0319831681178455604051919092169283917f8be0079c531659141344cd1fd0a4f28419497f9722a3daafe3b4186f6b6457e09190a35050565b6200019762000359565b6001600160a01b038216620002045760405162461bcd60e51b81526020600482015260346024820152600080516020620012c483398151915260448201527f69766572206973207a65726f20616464726573730000000000000000000000006064820152608401620000a4565b6000816001600160601b031611620002715760405162461bcd60e51b815260206004820152602960248201527f53686f70796368616e67655061796d656e7453706c69747465723a205368617260448201526865206973207a65726f60b81b6064820152608401620000a4565b604080516060810182526001600160a01b0384811682526001600160601b03848116602084019081526000948401858152600280546001810182558188529551925192909416600160a01b9284168302177f405787fa12a823e0f2b7631cc41b3ba8828b3321ca811111fa75cd3aa3bb5ace959094029485019390935591517f405787fa12a823e0f2b7631cc41b3ba8828b3321ca811111fa75cd3aa3bb5acf9093019290925582548493926014926200033192869291900416620005eb565b92506101000a8154816001600160601b0302191690836001600160601b031602179055505050565b6000546001600160a01b03163314620003b55760405162461bcd60e51b815260206004820181905260248201527f4f776e61626c653a2063616c6c6572206973206e6f7420746865206f776e65726044820152606401620000a4565b565b634e487b7160e01b600052604160045260246000fd5b604051601f8201601f191681016001600160401b0381118282101715620003f857620003f8620003b7565b604052919050565b60006001600160401b038211156200041c576200041c620003b7565b5060051b60200190565b600082601f8301126200043857600080fd5b81516020620004516200044b8362000400565b620003cd565b82815260059290921b840181019181810190868411156200047157600080fd5b8286015b84811015620004a55780516001600160601b0381168114620004975760008081fd5b835291830191830162000475565b509695505050505050565b60008060408385031215620004c457600080fd5b82516001600160401b0380821115620004dc57600080fd5b818501915085601f830112620004f157600080fd5b81516020620005046200044b8362000400565b82815260059290921b840181019181810190898411156200052457600080fd5b948201945b838610156200055b5785516001600160a01b03811681146200054b5760008081fd5b8252948201949082019062000529565b918801519196509093505050808211156200057557600080fd5b50620005848582860162000426565b9150509250929050565b634e487b7160e01b600052603260045260246000fd5b634e487b7160e01b600052601160045260246000fd5b60006001600160601b038281166002600160601b03198101620005e157620005e1620005a4565b6001019392505050565b6001600160601b038181168382160190808211156200060e576200060e620005a4565b5092915050565b610c9f80620006256000396000f3fe60806040526004361061008a5760003560e01c8063715018a611610059578063715018a6146101635780638b6a1595146101785780638da5cb5b14610198578063e061646b146101c0578063f2fde38b146101e257600080fd5b80632977c166146100ce57806362b85d96146100f057806366399484146101235780636a2364281461014357600080fd5b366100c957604080513381523460208201527f6ef95f06320e7a25a04a175ca677b7052bdd97131872c2192525a629f51be770910160405180910390a1005b600080fd5b3480156100da57600080fd5b506100ee6100e9366004610a90565b610202565b005b3480156100fc57600080fd5b5061011061010b366004610a90565b61043c565b6040519081526020015b60405180910390f35b34801561012f57600080fd5b5061011061013e366004610a90565b6104a5565b34801561014f57600080fd5b506100ee61015e366004610ac2565b6104dc565b34801561016f57600080fd5b506100ee6106a8565b34801561018457600080fd5b506100ee610193366004610a90565b6106bc565b3480156101a457600080fd5b506000546040516001600160a01b03909116815260200161011a565b3480156101cc57600080fd5b506101d5610883565b60405161011a9190610af5565b3480156101ee57600080fd5b506100ee6101fd366004610b60565b610910565b60006002826001600160601b03168154811061022057610220610b7b565b6000918252602090912060029091020154600160a01b90046001600160601b0316116102a25760405162461bcd60e51b815260206004820152602660248201527f5061796d656e7453706c69747465723a206163636f756e7420686173206e6f2060448201526573686172657360d01b60648201526084015b60405180910390fd5b60006102ad8261043c565b9050806000036103135760405162461bcd60e51b815260206004820152602b60248201527f5061796d656e7453706c69747465723a206163636f756e74206973206e6f742060448201526a191d59481c185e5b595b9d60aa1b6064820152608401610299565b80600160008282546103259190610ba7565b92505081905550806002836001600160601b03168154811061034957610349610b7b565b9060005260206000209060020201600101600082825401925050819055506002826001600160601b03168154811061038357610383610b7b565b600091825260208220600290910201546040516001600160a01b039091169183156108fc02918491818181858888f193505050501580156103c8573d6000803e3d6000fd5b507fdf20fd1e76bc69d672e4814fafb2c449bba3a5369d8359adf9e05e6fde87b0566002836001600160601b03168154811061040657610406610b7b565b600091825260209182902060029091020154604080516001600160a01b0390921682529181018490520160405180910390a15050565b6000806001544761044d9190610ba7565b905061049e6002846001600160601b03168154811061046e5761046e610b7b565b6000918252602090912060029091020154600160a01b90046001600160601b031682610499866104a5565b610989565b9392505050565b60006002826001600160601b0316815481106104c3576104c3610b7b565b9060005260206000209060020201600101549050919050565b6104e46109ca565b6001600160a01b0382166105575760405162461bcd60e51b815260206004820152603460248201527f53686f70796368616e67655061796d656e7453706c69747465723a205265636560448201527369766572206973207a65726f206164647265737360601b6064820152608401610299565b6000816001600160601b0316116105c25760405162461bcd60e51b815260206004820152602960248201527f53686f70796368616e67655061796d656e7453706c69747465723a205368617260448201526865206973207a65726f60b81b6064820152608401610299565b604080516060810182526001600160a01b0384811682526001600160601b03848116602084019081526000948401858152600280546001810182558188529551925192909416600160a01b9284168302177f405787fa12a823e0f2b7631cc41b3ba8828b3321ca811111fa75cd3aa3bb5ace959094029485019390935591517f405787fa12a823e0f2b7631cc41b3ba8828b3321ca811111fa75cd3aa3bb5acf90930192909255825484939260149261068092869291900416610bc0565b92506101000a8154816001600160601b0302191690836001600160601b031602179055505050565b6106b06109ca565b6106ba6000610a24565b565b6106c46109ca565b6002546001600160601b038216106107365760405162461bcd60e51b815260206004820152602f60248201527f53686f70796368616e67655061796d656e7453706c69747465723a20496e646560448201526e78206f7574206f6620626f756e647360881b6064820152608401610299565b6002816001600160601b03168154811061075257610752610b7b565b6000918252602082206002909102015481546001600160601b03600160a01b928390048116939260149261078b92869290910416610be7565b92506101000a8154816001600160601b0302191690836001600160601b03160217905550600260016002805490506107c39190610c07565b815481106107d3576107d3610b7b565b90600052602060002090600202016002826001600160601b0316815481106107fd576107fd610b7b565b600091825260209091208254600292830290910180546001600160a01b0319166001600160a01b03909216918217815583546001600160601b03600160a01b918290041602909117815560019283015492019190915580548061086257610862610c1a565b60008281526020812060026000199093019283020181815560010155905550565b60606002805480602002602001604051908101604052809291908181526020016000905b82821015610907576000848152602090819020604080516060810182526002860290920180546001600160a01b0381168452600160a01b90046001600160601b0316838501526001908101549183019190915290835290920191016108a7565b50505050905090565b6109186109ca565b6001600160a01b03811661097d5760405162461bcd60e51b815260206004820152602660248201527f4f776e61626c653a206e6577206f776e657220697320746865207a65726f206160448201526564647265737360d01b6064820152608401610299565b61098681610a24565b50565b6000805482906001600160601b03600160a01b9091048116906109ae90871686610c30565b6109b89190610c47565b6109c29190610c07565b949350505050565b6000546001600160a01b031633146106ba5760405162461bcd60e51b815260206004820181905260248201527f4f776e61626c653a2063616c6c6572206973206e6f7420746865206f776e65726044820152606401610299565b600080546001600160a01b038381166001600160a01b0319831681178455604051919092169283917f8be0079c531659141344cd1fd0a4f28419497f9722a3daafe3b4186f6b6457e09190a35050565b80356001600160601b0381168114610a8b57600080fd5b919050565b600060208284031215610aa257600080fd5b61049e82610a74565b80356001600160a01b0381168114610a8b57600080fd5b60008060408385031215610ad557600080fd5b610ade83610aab565b9150610aec60208401610a74565b90509250929050565b602080825282518282018190526000919060409081850190868401855b82811015610b5357815180516001600160a01b03168552868101516001600160601b0316878601528501518585015260609093019290850190600101610b12565b5091979650505050505050565b600060208284031215610b7257600080fd5b61049e82610aab565b634e487b7160e01b600052603260045260246000fd5b634e487b7160e01b600052601160045260246000fd5b80820180821115610bba57610bba610b91565b92915050565b6001600160601b03818116838216019080821115610be057610be0610b91565b5092915050565b6001600160601b03828116828216039080821115610be057610be0610b91565b81810381811115610bba57610bba610b91565b634e487b7160e01b600052603160045260246000fd5b8082028115828204841417610bba57610bba610b91565b600082610c6457634e487b7160e01b600052601260045260246000fd5b50049056fea26469706673582212206068825b5c358d1bc3e93eb9fb234c4fcd752eb300273c07061b7b64c6085f7964736f6c6343000812003353686f70796368616e67655061796d656e7453706c69747465723a2052656365a26469706673582212207ed597d368bbf3a1838039804b1391e65b802d75299e920c6083acefe84ccbdc64736f6c6343000812003360806040523480156200001157600080fd5b50604051620012e4380380620012e48339810160408190526200003491620004b0565b6200003f336200013d565b8051825114620000ad576040805162461bcd60e51b8152602060048201526024810191909152600080516020620012c483398151915260448201527f697665727320616e6420536861726573206c656e677468206d69736d6174636860648201526084015b60405180910390fd5b60005b8251816001600160601b0316101562000134576200011f83826001600160601b031681518110620000e557620000e56200058e565b602002602001015183836001600160601b0316815181106200010b576200010b6200058e565b60200260200101516200018d60201b60201c565b806200012b81620005ba565b915050620000b0565b50505062000615565b600080546001600160a01b038381166001600160a01b0319831681178455604051919092169283917f8be0079c531659141344cd1fd0a4f28419497f9722a3daafe3b4186f6b6457e09190a35050565b6200019762000359565b6001600160a01b038216620002045760405162461bcd60e51b81526020600482015260346024820152600080516020620012c483398151915260448201527f69766572206973207a65726f20616464726573730000000000000000000000006064820152608401620000a4565b6000816001600160601b031611620002715760405162461bcd60e51b815260206004820152602960248201527f53686f70796368616e67655061796d656e7453706c69747465723a205368617260448201526865206973207a65726f60b81b6064820152608401620000a4565b604080516060810182526001600160a01b0384811682526001600160601b03848116602084019081526000948401858152600280546001810182558188529551925192909416600160a01b9284168302177f405787fa12a823e0f2b7631cc41b3ba8828b3321ca811111fa75cd3aa3bb5ace959094029485019390935591517f405787fa12a823e0f2b7631cc41b3ba8828b3321ca811111fa75cd3aa3bb5acf9093019290925582548493926014926200033192869291900416620005eb565b92506101000a8154816001600160601b0302191690836001600160601b031602179055505050565b6000546001600160a01b03163314620003b55760405162461bcd60e51b815260206004820181905260248201527f4f776e61626c653a2063616c6c6572206973206e6f7420746865206f776e65726044820152606401620000a4565b565b634e487b7160e01b600052604160045260246000fd5b604051601f8201601f191681016001600160401b0381118282101715620003f857620003f8620003b7565b604052919050565b60006001600160401b038211156200041c576200041c620003b7565b5060051b60200190565b600082601f8301126200043857600080fd5b81516020620004516200044b8362000400565b620003cd565b82815260059290921b840181019181810190868411156200047157600080fd5b8286015b84811015620004a55780516001600160601b0381168114620004975760008081fd5b835291830191830162000475565b509695505050505050565b60008060408385031215620004c457600080fd5b82516001600160401b0380821115620004dc57600080fd5b818501915085601f830112620004f157600080fd5b81516020620005046200044b8362000400565b82815260059290921b840181019181810190898411156200052457600080fd5b948201945b838610156200055b5785516001600160a01b03811681146200054b5760008081fd5b8252948201949082019062000529565b918801519196509093505050808211156200057557600080fd5b50620005848582860162000426565b9150509250929050565b634e487b7160e01b600052603260045260246000fd5b634e487b7160e01b600052601160045260246000fd5b60006001600160601b038281166002600160601b03198101620005e157620005e1620005a4565b6001019392505050565b6001600160601b038181168382160190808211156200060e576200060e620005a4565b5092915050565b610c9f80620006256000396000f3fe60806040526004361061008a5760003560e01c8063715018a611610059578063715018a6146101635780638b6a1595146101785780638da5cb5b14610198578063e061646b146101c0578063f2fde38b146101e257600080fd5b80632977c166146100ce57806362b85d96146100f057806366399484146101235780636a2364281461014357600080fd5b366100c957604080513381523460208201527f6ef95f06320e7a25a04a175ca677b7052bdd97131872c2192525a629f51be770910160405180910390a1005b600080fd5b3480156100da57600080fd5b506100ee6100e9366004610a90565b610202565b005b3480156100fc57600080fd5b5061011061010b366004610a90565b61043c565b6040519081526020015b60405180910390f35b34801561012f57600080fd5b5061011061013e366004610a90565b6104a5565b34801561014f57600080fd5b506100ee61015e366004610ac2565b6104dc565b34801561016f57600080fd5b506100ee6106a8565b34801561018457600080fd5b506100ee610193366004610a90565b6106bc565b3480156101a457600080fd5b506000546040516001600160a01b03909116815260200161011a565b3480156101cc57600080fd5b506101d5610883565b60405161011a9190610af5565b3480156101ee57600080fd5b506100ee6101fd366004610b60565b610910565b60006002826001600160601b03168154811061022057610220610b7b565b6000918252602090912060029091020154600160a01b90046001600160601b0316116102a25760405162461bcd60e51b815260206004820152602660248201527f5061796d656e7453706c69747465723a206163636f756e7420686173206e6f2060448201526573686172657360d01b60648201526084015b60405180910390fd5b60006102ad8261043c565b9050806000036103135760405162461bcd60e51b815260206004820152602b60248201527f5061796d656e7453706c69747465723a206163636f756e74206973206e6f742060448201526a191d59481c185e5b595b9d60aa1b6064820152608401610299565b80600160008282546103259190610ba7565b92505081905550806002836001600160601b03168154811061034957610349610b7b565b9060005260206000209060020201600101600082825401925050819055506002826001600160601b03168154811061038357610383610b7b565b600091825260208220600290910201546040516001600160a01b039091169183156108fc02918491818181858888f193505050501580156103c8573d6000803e3d6000fd5b507fdf20fd1e76bc69d672e4814fafb2c449bba3a5369d8359adf9e05e6fde87b0566002836001600160601b03168154811061040657610406610b7b565b600091825260209182902060029091020154604080516001600160a01b0390921682529181018490520160405180910390a15050565b6000806001544761044d9190610ba7565b905061049e6002846001600160601b03168154811061046e5761046e610b7b565b6000918252602090912060029091020154600160a01b90046001600160601b031682610499866104a5565b610989565b9392505050565b60006002826001600160601b0316815481106104c3576104c3610b7b565b9060005260206000209060020201600101549050919050565b6104e46109ca565b6001600160a01b0382166105575760405162461bcd60e51b815260206004820152603460248201527f53686f70796368616e67655061796d656e7453706c69747465723a205265636560448201527369766572206973207a65726f206164647265737360601b6064820152608401610299565b6000816001600160601b0316116105c25760405162461bcd60e51b815260206004820152602960248201527f53686f70796368616e67655061796d656e7453706c69747465723a205368617260448201526865206973207a65726f60b81b6064820152608401610299565b604080516060810182526001600160a01b0384811682526001600160601b03848116602084019081526000948401858152600280546001810182558188529551925192909416600160a01b9284168302177f405787fa12a823e0f2b7631cc41b3ba8828b3321ca811111fa75cd3aa3bb5ace959094029485019390935591517f405787fa12a823e0f2b7631cc41b3ba8828b3321ca811111fa75cd3aa3bb5acf90930192909255825484939260149261068092869291900416610bc0565b92506101000a8154816001600160601b0302191690836001600160601b031602179055505050565b6106b06109ca565b6106ba6000610a24565b565b6106c46109ca565b6002546001600160601b038216106107365760405162461bcd60e51b815260206004820152602f60248201527f53686f70796368616e67655061796d656e7453706c69747465723a20496e646560448201526e78206f7574206f6620626f756e647360881b6064820152608401610299565b6002816001600160601b03168154811061075257610752610b7b565b6000918252602082206002909102015481546001600160601b03600160a01b928390048116939260149261078b92869290910416610be7565b92506101000a8154816001600160601b0302191690836001600160601b03160217905550600260016002805490506107c39190610c07565b815481106107d3576107d3610b7b565b90600052602060002090600202016002826001600160601b0316815481106107fd576107fd610b7b565b600091825260209091208254600292830290910180546001600160a01b0319166001600160a01b03909216918217815583546001600160601b03600160a01b918290041602909117815560019283015492019190915580548061086257610862610c1a565b60008281526020812060026000199093019283020181815560010155905550565b60606002805480602002602001604051908101604052809291908181526020016000905b82821015610907576000848152602090819020604080516060810182526002860290920180546001600160a01b0381168452600160a01b90046001600160601b0316838501526001908101549183019190915290835290920191016108a7565b50505050905090565b6109186109ca565b6001600160a01b03811661097d5760405162461bcd60e51b815260206004820152602660248201527f4f776e61626c653a206e6577206f776e657220697320746865207a65726f206160448201526564647265737360d01b6064820152608401610299565b61098681610a24565b50565b6000805482906001600160601b03600160a01b9091048116906109ae90871686610c30565b6109b89190610c47565b6109c29190610c07565b949350505050565b6000546001600160a01b031633146106ba5760405162461bcd60e51b815260206004820181905260248201527f4f776e61626c653a2063616c6c6572206973206e6f7420746865206f776e65726044820152606401610299565b600080546001600160a01b038381166001600160a01b0319831681178455604051919092169283917f8be0079c531659141344cd1fd0a4f28419497f9722a3daafe3b4186f6b6457e09190a35050565b80356001600160601b0381168114610a8b57600080fd5b919050565b600060208284031215610aa257600080fd5b61049e82610a74565b80356001600160a01b0381168114610a8b57600080fd5b60008060408385031215610ad557600080fd5b610ade83610aab565b9150610aec60208401610a74565b90509250929050565b602080825282518282018190526000919060409081850190868401855b82811015610b5357815180516001600160a01b03168552868101516001600160601b0316878601528501518585015260609093019290850190600101610b12565b5091979650505050505050565b600060208284031215610b7257600080fd5b61049e82610aab565b634e487b7160e01b600052603260045260246000fd5b634e487b7160e01b600052601160045260246000fd5b80820180821115610bba57610bba610b91565b92915050565b6001600160601b03818116838216019080821115610be057610be0610b91565b5092915050565b6001600160601b03828116828216039080821115610be057610be0610b91565b81810381811115610bba57610bba610b91565b634e487b7160e01b600052603160045260246000fd5b8082028115828204841417610bba57610bba610b91565b600082610c6457634e487b7160e01b600052601260045260246000fd5b50049056fea26469706673582212206068825b5c358d1bc3e93eb9fb234c4fcd752eb300273c07061b7b64c6085f7964736f6c6343000812003353686f70796368616e67655061796d656e7453706c69747465723a2052656365",
  "linkReferences": {},
  "deployedLinkReferences": {}
}