{
  "_format": "hh-sol-artifact-1",
  "contractName": "ShopychangeERC721Factory",
  "sourceName": "contracts/FactoryERC721/ShopychangeERC721Factory.sol",
  "abi": [
    {
      "anonymous": false,
      "inputs": [
        {
          "indexed": true,
          "internalType": "address",
          "name": "creator",
          "type": "address"
        },
        {
          "indexed": true,
          "internalType": "address",
          "name": "erc721",
          "type": "address"
        },
        {
          "indexed": false,
          "internalType": "string",
          "name": "name",
          "type": "string"
        },
        {
          "indexed": false,
          "internalType": "string",
          "name": "symbol",
          "type": "string"
        },
        {
          "indexed": false,
          "internalType": "string",
          "name": "creationBaseURI",
          "type": "string"
        },
        {
          "indexed": false,
          "internalType": "uint256",
          "name": "numberOfTokensToMint",
          "type": "uint256"
        }
      ],
      "name": "NewERC721",
      "type": "event"
    },
    {
      "inputs": [
        {
          "internalType": "string",
          "name": "name",
          "type": "string"
        },
        {
          "internalType": "string",
          "name": "symbol",
          "type": "string"
        },
        {
          "internalType": "string",
          "name": "creationBaseURI",
          "type": "string"
        },
        {
          "internalType": "uint256",
          "name": "numberOfTokensToMint",
          "type": "uint256"
        },
        {
          "internalType": "address[]",
          "name": "_royaltyReceiver",
          "type": "address[]"
        },
        {
          "internalType": "uint96[]",
          "name": "_royaltyFraction",
          "type": "uint96[]"
        }
      ],
      "name": "createERC721",
      "outputs": [
        {
          "internalType": "address",
          "name": "",
          "type": "address"
        }
      ],
      "stateMutability": "nonpayable",
      "type": "function"
    },
    {
      "inputs": [],
      "name": "getAllERC721s",
      "outputs": [
        {
          "internalType": "address[]",
          "name": "",
          "type": "address[]"
        }
      ],
      "stateMutability": "view",
      "type": "function"
    }
  ],
  "bytecode": "0x608060405234801561001057600080fd5b50615fdb806100206000396000f3fe60806040523480156200001157600080fd5b50600436106200003a5760003560e01c80633be00298146200003f5780636bf501ca1462000061575b600080fd5b6200004962000091565b604051620000589190620004c2565b60405180910390f35b6200007862000072366004620006ce565b620000f5565b6040516001600160a01b03909116815260200162000058565b60606000805480602002602001604051908101604052809291908181526020018280548015620000eb57602002820191906000526020600020905b81546001600160a01b03168152600190910190602001808311620000cc575b5050505050905090565b600080878785856040516200010a906200046e565b6200011994939291906200080c565b604051809103906000f08015801562000136573d6000803e3d6000fd5b50905060005b85811015620001fe57816001600160a01b031663d0def52133896200016185620002f4565b60405160200162000174929190620008a0565b6040516020818303038152906040526040518363ffffffff1660e01b8152600401620001a2929190620008d3565b6020604051808303816000875af1158015620001c2573d6000803e3d6000fd5b505050506040513d601f19601f82011682018060405250810190620001e8919062000901565b5080620001f5816200091b565b9150506200013c565b5060405163f2fde38b60e01b81523360048201526001600160a01b0382169063f2fde38b90602401600060405180830381600087803b1580156200024157600080fd5b505af115801562000256573d6000803e3d6000fd5b5050600080546001810182559080527f290decd9548b62a8d60345a988386fc84ba6bc95484008f6362f93160ef3e5630180546001600160a01b0319166001600160a01b0385169081179091556040519092503391507faaad0716b25016d7fb8116e1d62753d94530a710612017a01247ea4a7727fe6f90620002e1908c908c908c908c9062000943565b60405180910390a3979650505050505050565b6060600062000303836200038e565b600101905060008167ffffffffffffffff811115620003265762000326620004de565b6040519080825280601f01601f19166020018201604052801562000351576020820181803683370190505b5090508181016020015b600019016f181899199a1a9b1b9c1cb0b131b232b360811b600a86061a8153600a85049450846200035b57509392505050565b60008072184f03e93ff9f4daa797ed6e38ed64bf6a1f0160401b8310620003ce5772184f03e93ff9f4daa797ed6e38ed64bf6a1f0160401b830492506040015b6d04ee2d6d415b85acef81000000008310620003fb576d04ee2d6d415b85acef8100000000830492506020015b662386f26fc1000083106200041a57662386f26fc10000830492506010015b6305f5e100831062000433576305f5e100830492506008015b61271083106200044857612710830492506004015b606483106200045b576064830492506002015b600a831062000468576001015b92915050565b615611806200099583390190565b600081518084526020808501945080840160005b83811015620004b75781516001600160a01b03168752958201959082019060010162000490565b509495945050505050565b602081526000620004d760208301846200047c565b9392505050565b634e487b7160e01b600052604160045260246000fd5b604051601f8201601f1916810167ffffffffffffffff81118282101715620005205762000520620004de565b604052919050565b600082601f8301126200053a57600080fd5b813567ffffffffffffffff811115620005575762000557620004de565b6200056c601f8201601f1916602001620004f4565b8181528460208386010111156200058257600080fd5b816020850160208301376000918101602001919091529392505050565b600067ffffffffffffffff821115620005bc57620005bc620004de565b5060051b60200190565b600082601f830112620005d857600080fd5b81356020620005f1620005eb836200059f565b620004f4565b82815260059290921b840181019181810190868411156200061157600080fd5b8286015b84811015620006455780356001600160a01b0381168114620006375760008081fd5b835291830191830162000615565b509695505050505050565b600082601f8301126200066257600080fd5b8135602062000675620005eb836200059f565b82815260059290921b840181019181810190868411156200069557600080fd5b8286015b84811015620006455780356bffffffffffffffffffffffff81168114620006c05760008081fd5b835291830191830162000699565b60008060008060008060c08789031215620006e857600080fd5b863567ffffffffffffffff808211156200070157600080fd5b6200070f8a838b0162000528565b975060208901359150808211156200072657600080fd5b620007348a838b0162000528565b965060408901359150808211156200074b57600080fd5b620007598a838b0162000528565b95506060890135945060808901359150808211156200077757600080fd5b620007858a838b01620005c6565b935060a08901359150808211156200079c57600080fd5b50620007ab89828a0162000650565b9150509295509295509295565b60005b83811015620007d5578181015183820152602001620007bb565b50506000910152565b60008151808452620007f8816020860160208601620007b8565b601f01601f19169290920160200192915050565b608081526000620008216080830187620007de565b602083820381850152620008368288620007de565b915083820360408501526200084c82876200047c565b8481036060860152855180825282870193509082019060005b81811015620008915784516bffffffffffffffffffffffff168352938301939183019160010162000865565b50909998505050505050505050565b60008351620008b4818460208801620007b8565b835190830190620008ca818360208801620007b8565b01949350505050565b6001600160a01b0383168152604060208201819052600090620008f990830184620007de565b949350505050565b6000602082840312156200091457600080fd5b5051919050565b6000600182016200093c57634e487b7160e01b600052601160045260246000fd5b5060010190565b608081526000620009586080830187620007de565b82810360208401526200096c8187620007de565b90508281036040840152620009828186620007de565b9150508260608301529594505050505056fe60806040523480156200001157600080fd5b5060405162005611380380620056118339810160408190526200003491620004fd565b8383838362000043336200007c565b6200004f8282620000cc565b5060069050620000608382620006b5565b5060076200006f8282620006b5565b5050505050505062000899565b600080546001600160a01b038381166001600160a01b0319831681178455604051919092169283917f8be0079c531659141344cd1fd0a4f28419497f9722a3daafe3b4186f6b6457e09190a35050565b620000d662000206565b81516001036200013a576200012c82600081518110620000fa57620000fa62000781565b60200260200101518260008151811062000118576200011862000781565b60200260200101516200026860201b60201c565b6005805460ff191690555050565b60018251111562000202576000805b8351816001600160601b03161015620001a65782816001600160601b0316815181106200017a576200017a62000781565b6020026020010151826200018f9190620007ad565b9150806200019d81620007d7565b91505062000149565b5060008383604051620001b99062000369565b620001c692919062000808565b604051809103906000f080158015620001e3573d6000803e3d6000fd5b509050620001f2818362000268565b50506005805460ff191660011790555b5050565b6000546001600160a01b03163314620002665760405162461bcd60e51b815260206004820181905260248201527f4f776e61626c653a2063616c6c6572206973206e6f7420746865206f776e657260448201526064015b60405180910390fd5b565b6127106001600160601b0382161115620002d85760405162461bcd60e51b815260206004820152602a60248201527f455243323938313a20726f79616c7479206665652077696c6c206578636565646044820152692073616c65507269636560b01b60648201526084016200025d565b6001600160a01b038216620003305760405162461bcd60e51b815260206004820152601960248201527f455243323938313a20696e76616c69642072656365697665720000000000000060448201526064016200025d565b604080518082019091526001600160a01b039092168083526001600160601b039091166020909201829052600160a01b90910217600155565b6112e4806200432d83390190565b634e487b7160e01b600052604160045260246000fd5b604051601f8201601f191681016001600160401b0381118282101715620003b857620003b862000377565b604052919050565b600082601f830112620003d257600080fd5b81516001600160401b03811115620003ee57620003ee62000377565b602062000404601f8301601f191682016200038d565b82815285828487010111156200041957600080fd5b60005b83811015620004395785810183015182820184015282016200041c565b506000928101909101919091529392505050565b60006001600160401b0382111562000469576200046962000377565b5060051b60200190565b600082601f8301126200048557600080fd5b815160206200049e62000498836200044d565b6200038d565b82815260059290921b84018101918181019086841115620004be57600080fd5b8286015b84811015620004f25780516001600160601b0381168114620004e45760008081fd5b8352918301918301620004c2565b509695505050505050565b600080600080608085870312156200051457600080fd5b84516001600160401b03808211156200052c57600080fd5b6200053a88838901620003c0565b95506020915081870151818111156200055257600080fd5b6200056089828a01620003c0565b9550506040870151818111156200057657600080fd5b8701601f810189136200058857600080fd5b80516200059962000498826200044d565b81815260059190911b8201840190848101908b831115620005b957600080fd5b928501925b82841015620005f05783516001600160a01b0381168114620005e05760008081fd5b82529285019290850190620005be565b60608b01519097509450505050808211156200060b57600080fd5b506200061a8782880162000473565b91505092959194509250565b600181811c908216806200063b57607f821691505b6020821081036200065c57634e487b7160e01b600052602260045260246000fd5b50919050565b601f821115620006b057600081815260208120601f850160051c810160208610156200068b5750805b601f850160051c820191505b81811015620006ac5782815560010162000697565b5050505b505050565b81516001600160401b03811115620006d157620006d162000377565b620006e981620006e2845462000626565b8462000662565b602080601f831160018114620007215760008415620007085750858301515b600019600386901b1c1916600185901b178555620006ac565b600085815260208120601f198616915b82811015620007525788860151825594840194600190910190840162000731565b5085821015620007715787850151600019600388901b60f8161c191681555b5050505050600190811b01905550565b634e487b7160e01b600052603260045260246000fd5b634e487b7160e01b600052601160045260246000fd5b6001600160601b03818116838216019080821115620007d057620007d062000797565b5092915050565b60006001600160601b038281166002600160601b03198101620007fe57620007fe62000797565b6001019392505050565b604080825283519082018190526000906020906060840190828701845b828110156200084c5781516001600160a01b03168452928401929084019060010162000825565b5050508381038285015284518082528583019183019060005b818110156200088c5783516001600160601b03168352928401929184019160010162000865565b5090979650505050505050565b613a8480620008a96000396000f3fe60806040523480156200001157600080fd5b5060043610620001f55760003560e01c80637f7c75a21162000119578063aa1b103f11620000af578063d0def521116200007a578063d0def521146200047c578063e435e6ab1462000493578063e985e9c514620004b9578063f2fde38b14620004f857600080fd5b8063aa1b103f1462000438578063b794f1e71462000442578063b88d4fde146200044e578063c87b56dd146200046557600080fd5b80638e938efe11620000f05780638e938efe14620003f157806395d0a8aa146200040857806395d89b411462000417578063a22cb465146200042157600080fd5b80637f7c75a214620003a25780638a616bc014620003c85780638da5cb5b14620003df57600080fd5b806342966c68116200018f578063715018a61162000166578063715018a61462000341578063778865ac146200034b578063787d491d14620003745780637b341537146200038b57600080fd5b806342966c6814620002ed5780636352211e146200030457806370a08231146200031b57600080fd5b8063095ea7b311620001d0578063095ea7b3146200026f57806323b872dd14620002885780632a55205a146200029f57806342842e0e14620002d657600080fd5b806301ffc9a714620001fa57806306fdde031462000226578063081812fc146200023f575b600080fd5b620002116200020b36600462001ced565b6200050f565b60405190151581526020015b60405180910390f35b6200023062000522565b6040516200021d919062001d61565b620002566200025036600462001d76565b620005bc565b6040516001600160a01b0390911681526020016200021d565b620002866200028036600462001dad565b620005e5565b005b620002866200029936600462001dda565b62000709565b620002b6620002b036600462001e1b565b62000742565b604080516001600160a01b0390931683526020830191909152016200021d565b62000286620002e736600462001dda565b620007f3565b62000286620002fe36600462001d76565b62000810565b620002566200031536600462001d76565b62000848565b620003326200032c36600462001e3e565b620008aa565b6040519081526020016200021d565b6200028662000932565b6200035a637d24ef7960e11b81565b6040516001600160e01b031990911681526020016200021d565b620002866200038536600462001fc2565b6200094a565b620003326200039c366004620020ae565b62000a7e565b62000211620003b336600462001d76565b60009081526004602052604090205460ff1690565b62000286620003d936600462001d76565b62000ad7565b6000546001600160a01b031662000256565b620002866200040236600462002153565b62000b18565b6200035a63152a902d60e11b81565b6200023062000c95565b6200028662000432366004620021c7565b62000ca6565b6200028662000cb3565b60055460ff1662000211565b620002866200045f36600462002207565b62000cd4565b620002306200047636600462001d76565b62000d13565b620003326200048d36600462002280565b62000d20565b62000211620004a436600462001d76565b60009081526003602052604090205460ff1690565b62000211620004ca366004620022ca565b6001600160a01b039182166000908152600b6020908152604080832093909416825291909152205460ff1690565b620002866200050936600462001e3e565b62000d68565b60006200051c8262000de4565b92915050565b606060068054620005339062002302565b80601f0160208091040260200160405190810160405280929190818152602001828054620005619062002302565b8015620005b25780601f106200058657610100808354040283529160200191620005b2565b820191906000526020600020905b8154815290600101906020018083116200059457829003601f168201915b5050505050905090565b6000620005c98262000e0c565b506000908152600a60205260409020546001600160a01b031690565b6000620005f28262000848565b9050806001600160a01b0316836001600160a01b031603620006655760405162461bcd60e51b815260206004820152602160248201527f4552433732313a20617070726f76616c20746f2063757272656e74206f776e656044820152603960f91b60648201526084015b60405180910390fd5b336001600160a01b0382161480620006845750620006848133620004ca565b620006f85760405162461bcd60e51b815260206004820152603d60248201527f4552433732313a20617070726f76652063616c6c6572206973206e6f7420746f60448201527f6b656e206f776e6572206f7220617070726f76656420666f7220616c6c00000060648201526084016200065c565b62000704838362000e6d565b505050565b62000716335b8262000edd565b620007355760405162461bcd60e51b81526004016200065c906200233e565b6200070483838362000f61565b60008281526002602090815260408083208151808301909252546001600160a01b038116808352600160a01b9091046001600160601b0316928201929092528291620007b85750604080518082019091526001546001600160a01b0381168252600160a01b90046001600160601b031660208201525b602081015160009061271090620007d9906001600160601b031687620023a1565b620007e59190620023bb565b915196919550909350505050565b620007048383836040518060200160405280600081525062000cd4565b6200081b336200070f565b6200083a5760405162461bcd60e51b81526004016200065c906200233e565b6200084581620010d1565b50565b6000818152600860205260408120546001600160a01b0316806200051c5760405162461bcd60e51b8152602060048201526018602482015277115490cdcc8c4e881a5b9d985b1a59081d1bdad95b88125160421b60448201526064016200065c565b60006001600160a01b038216620009165760405162461bcd60e51b815260206004820152602960248201527f4552433732313a2061646472657373207a65726f206973206e6f7420612076616044820152683634b21037bbb732b960b91b60648201526084016200065c565b506001600160a01b031660009081526009602052604090205490565b6200093c620010dc565b62000948600062001138565b565b62000954620010dc565b8151600103620009b257620009a482600081518110620009785762000978620023de565b602002602001015182600081518110620009965762000996620023de565b602002602001015162001188565b6005805460ff191690555050565b60018251111562000a7a576000805b8351816001600160601b0316101562000a1e5782816001600160601b031681518110620009f257620009f2620023de565b60200260200101518262000a079190620023f4565b91508062000a15816200241e565b915050620009c1565b506000838360405162000a319062001c74565b62000a3e92919062002447565b604051809103906000f08015801562000a5b573d6000803e3d6000fd5b50905062000a6a818362001188565b50506005805460ff191660011790555b5050565b600062000a8a620010dc565b600062000a96600d5490565b905062000aa4868262001247565b62000ab0818662001263565b62000abd81858562000b18565b62000acc600d80546001019055565b90505b949350505050565b62000ae1620010dc565b600090815260026020908152604080832083905560038252808320805460ff19908116909155600490925290912080549091169055565b62000b22620010dc565b815160010362000ba55762000b73838360008151811062000b475762000b47620023de565b60200260200101518360008151811062000b655762000b65620023de565b602002602001015162001332565b50506000908152600360209081526040808320805460ff19908116909155600490925290912080549091166001179055565b60018251111562000704576000805b8351816001600160601b0316101562000c115782816001600160601b03168151811062000be55762000be5620023de565b60200260200101518262000bfa9190620023f4565b91508062000c08816200241e565b91505062000bb4565b506000838360405162000c249062001c74565b62000c3192919062002447565b604051809103906000f08015801562000c4e573d6000803e3d6000fd5b50905062000c5e85828462001332565b5050506000918252506003602090815260408083208054600160ff1991821681179092556004909352922080549091169091179055565b606060078054620005339062002302565b62000a7a33838362001402565b62000cbd620010dc565b62000cc86000600155565b6005805460ff19169055565b62000ce0338362000edd565b62000cff5760405162461bcd60e51b81526004016200065c906200233e565b62000d0d84848484620014d2565b50505050565b60606200051c826200150c565b600062000d2c620010dc565b600062000d38600d5490565b905062000d46848262001247565b62000d52818462001263565b62000d61600d80546001019055565b9392505050565b62000d72620010dc565b6001600160a01b03811662000dd95760405162461bcd60e51b815260206004820152602660248201527f4f776e61626c653a206e6577206f776e657220697320746865207a65726f206160448201526564647265737360d01b60648201526084016200065c565b620008458162001138565b60006001600160e01b03198216632483248360e11b14806200051c57506200051c8262001625565b6000818152600860205260409020546001600160a01b0316620008455760405162461bcd60e51b8152602060048201526018602482015277115490cdcc8c4e881a5b9d985b1a59081d1bdad95b88125160421b60448201526064016200065c565b6000818152600a6020526040902080546001600160a01b0319166001600160a01b038416908117909155819062000ea48262000848565b6001600160a01b03167f8c5be1e5ebec7d5bd14f71427d1e84f3dd0314c0f7b2291e5b200ac8c7c3b92560405160405180910390a45050565b60008062000eeb8362000848565b9050806001600160a01b0316846001600160a01b0316148062000f3357506001600160a01b038082166000908152600b602090815260408083209388168352929052205460ff165b8062000acf5750836001600160a01b031662000f4f84620005bc565b6001600160a01b031614949350505050565b826001600160a01b031662000f768262000848565b6001600160a01b03161462000f9f5760405162461bcd60e51b81526004016200065c90620024d8565b6001600160a01b038216620010035760405162461bcd60e51b8152602060048201526024808201527f4552433732313a207472616e7366657220746f20746865207a65726f206164646044820152637265737360e01b60648201526084016200065c565b826001600160a01b0316620010188262000848565b6001600160a01b031614620010415760405162461bcd60e51b81526004016200065c90620024d8565b6000818152600a6020908152604080832080546001600160a01b03199081169091556001600160a01b0387811680865260098552838620805460001901905590871680865283862080546001019055868652600890945282852080549092168417909155905184937fddf252ad1be2c89b69c2b068fc378daa952ba7f163c4a11628f55a4df523b3ef91a4505050565b620008458162001669565b6000546001600160a01b03163314620009485760405162461bcd60e51b815260206004820181905260248201527f4f776e61626c653a2063616c6c6572206973206e6f7420746865206f776e657260448201526064016200065c565b600080546001600160a01b038381166001600160a01b0319831681178455604051919092169283917f8be0079c531659141344cd1fd0a4f28419497f9722a3daafe3b4186f6b6457e09190a35050565b6127106001600160601b0382161115620011b65760405162461bcd60e51b81526004016200065c906200251d565b6001600160a01b0382166200120e5760405162461bcd60e51b815260206004820152601960248201527f455243323938313a20696e76616c69642072656365697665720000000000000060448201526064016200065c565b604080518082019091526001600160a01b039092168083526001600160601b039091166020909201829052600160a01b90910217600155565b62000a7a828260405180602001604052806000815250620016b0565b6000828152600860205260409020546001600160a01b0316620012e05760405162461bcd60e51b815260206004820152602e60248201527f45524337323155524953746f726167653a2055524920736574206f66206e6f6e60448201526d32bc34b9ba32b73a103a37b5b2b760911b60648201526084016200065c565b6000828152600c60205260409020620012fa8282620025b9565b506040518281527ff8e1a15aba9398e019f0b49df1a4fde98ee17ae345cb5f6b5e2c27f5033e8ce79060200160405180910390a15050565b6127106001600160601b0382161115620013605760405162461bcd60e51b81526004016200065c906200251d565b6001600160a01b038216620013b85760405162461bcd60e51b815260206004820152601b60248201527f455243323938313a20496e76616c696420706172616d6574657273000000000060448201526064016200065c565b6040805180820182526001600160a01b0393841681526001600160601b0392831660208083019182526000968752600290529190942093519051909116600160a01b029116179055565b816001600160a01b0316836001600160a01b031603620014655760405162461bcd60e51b815260206004820152601960248201527f4552433732313a20617070726f766520746f2063616c6c65720000000000000060448201526064016200065c565b6001600160a01b038381166000818152600b6020908152604080832094871680845294825291829020805460ff191686151590811790915591519182527f17307eab39ab6107e8899845ad3d59bd9653f200f220920489ca2b5937696c31910160405180910390a3505050565b620014df84848462000f61565b620014ed84848484620016ea565b62000d0d5760405162461bcd60e51b81526004016200065c9062002686565b6060620015198262000e0c565b6000828152600c602052604081208054620015349062002302565b80601f0160208091040260200160405190810160405280929190818152602001828054620015629062002302565b8015620015b35780601f106200158757610100808354040283529160200191620015b3565b820191906000526020600020905b8154815290600101906020018083116200159557829003601f168201915b505050505090506000620015d260408051602081019091526000815290565b90508051600003620015e5575092915050565b8151156200161a57808260405160200162001602929190620026d8565b60405160208183030381529060405292505050919050565b62000acf84620017f6565b60006001600160e01b031982166380ac58cd60e01b14806200165757506001600160e01b03198216635b5e139f60e01b145b806200051c57506200051c8262001872565b62001674816200189a565b6000818152600c6020526040902080546200168f9062002302565b15905062000845576000818152600c60205260408120620008459162001c82565b620016bc838362001933565b620016cb6000848484620016ea565b620007045760405162461bcd60e51b81526004016200065c9062002686565b60006001600160a01b0384163b15620017ed57604051630a85bd0160e11b81526001600160a01b0385169063150b7a0290620017319033908990889088906004016200270b565b6020604051808303816000875af19250505080156200176f575060408051601f3d908101601f191682019092526200176c918101906200274a565b60015b620017d2573d808015620017a0576040519150601f19603f3d011682016040523d82523d6000602084013e620017a5565b606091505b508051600003620017ca5760405162461bcd60e51b81526004016200065c9062002686565b805181602001fd5b6001600160e01b031916630a85bd0160e11b14905062000acf565b50600162000acf565b6060620018038262000e0c565b60006200181b60408051602081019091526000815290565b905060008151116200183d576040518060200160405280600081525062000d61565b80620018498462001ac4565b6040516020016200185c929190620026d8565b6040516020818303038152906040529392505050565b60006001600160e01b03198216637d24ef7960e11b14806200051c57506200051c8262001b5e565b6000620018a78262000848565b9050620018b48262000848565b6000838152600a6020908152604080832080546001600160a01b03199081169091556001600160a01b0385168085526009845282852080546000190190558785526008909352818420805490911690555192935084927fddf252ad1be2c89b69c2b068fc378daa952ba7f163c4a11628f55a4df523b3ef908390a45050565b6001600160a01b0382166200198b5760405162461bcd60e51b815260206004820181905260248201527f4552433732313a206d696e7420746f20746865207a65726f206164647265737360448201526064016200065c565b6000818152600860205260409020546001600160a01b031615620019f25760405162461bcd60e51b815260206004820152601c60248201527f4552433732313a20746f6b656e20616c7265616479206d696e7465640000000060448201526064016200065c565b6000818152600860205260409020546001600160a01b03161562001a595760405162461bcd60e51b815260206004820152601c60248201527f4552433732313a20746f6b656e20616c7265616479206d696e7465640000000060448201526064016200065c565b6001600160a01b038216600081815260096020908152604080832080546001019055848352600890915280822080546001600160a01b0319168417905551839291907fddf252ad1be2c89b69c2b068fc378daa952ba7f163c4a11628f55a4df523b3ef908290a45050565b6060600062001ad38362001b95565b600101905060008167ffffffffffffffff81111562001af65762001af662001e5c565b6040519080825280601f01601f19166020018201604052801562001b21576020820181803683370190505b5090508181016020015b600019016f181899199a1a9b1b9c1cb0b131b232b360811b600a86061a8153600a850494508462001b2b57509392505050565b60006001600160e01b0319821663152a902d60e11b14806200051c57506301ffc9a760e01b6001600160e01b03198316146200051c565b60008072184f03e93ff9f4daa797ed6e38ed64bf6a1f0160401b831062001bd55772184f03e93ff9f4daa797ed6e38ed64bf6a1f0160401b830492506040015b6d04ee2d6d415b85acef8100000000831062001c02576d04ee2d6d415b85acef8100000000830492506020015b662386f26fc10000831062001c2157662386f26fc10000830492506010015b6305f5e100831062001c3a576305f5e100830492506008015b612710831062001c4f57612710830492506004015b6064831062001c62576064830492506002015b600a83106200051c5760010192915050565b6112e4806200276b83390190565b50805462001c909062002302565b6000825580601f1062001ca1575050565b601f0160209004906000526020600020908101906200084591905b8082111562001cd2576000815560010162001cbc565b5090565b6001600160e01b0319811681146200084557600080fd5b60006020828403121562001d0057600080fd5b813562000d618162001cd6565b60005b8381101562001d2a57818101518382015260200162001d10565b50506000910152565b6000815180845262001d4d81602086016020860162001d0d565b601f01601f19169290920160200192915050565b60208152600062000d61602083018462001d33565b60006020828403121562001d8957600080fd5b5035919050565b80356001600160a01b038116811462001da857600080fd5b919050565b6000806040838503121562001dc157600080fd5b62001dcc8362001d90565b946020939093013593505050565b60008060006060848603121562001df057600080fd5b62001dfb8462001d90565b925062001e0b6020850162001d90565b9150604084013590509250925092565b6000806040838503121562001e2f57600080fd5b50508035926020909101359150565b60006020828403121562001e5157600080fd5b62000d618262001d90565b634e487b7160e01b600052604160045260246000fd5b604051601f8201601f1916810167ffffffffffffffff8111828210171562001e9e5762001e9e62001e5c565b604052919050565b600067ffffffffffffffff82111562001ec35762001ec362001e5c565b5060051b60200190565b600082601f83011262001edf57600080fd5b8135602062001ef862001ef28362001ea6565b62001e72565b82815260059290921b8401810191818101908684111562001f1857600080fd5b8286015b8481101562001f3e5762001f308162001d90565b835291830191830162001f1c565b509695505050505050565b600082601f83011262001f5b57600080fd5b8135602062001f6e62001ef28362001ea6565b82815260059290921b8401810191818101908684111562001f8e57600080fd5b8286015b8481101562001f3e5780356001600160601b038116811462001fb45760008081fd5b835291830191830162001f92565b6000806040838503121562001fd657600080fd5b823567ffffffffffffffff8082111562001fef57600080fd5b62001ffd8683870162001ecd565b935060208501359150808211156200201457600080fd5b50620020238582860162001f49565b9150509250929050565b600067ffffffffffffffff8311156200204a576200204a62001e5c565b6200205f601f8401601f191660200162001e72565b90508281528383830111156200207457600080fd5b828260208301376000602084830101529392505050565b600082601f8301126200209d57600080fd5b62000d61838335602085016200202d565b60008060008060808587031215620020c557600080fd5b620020d08562001d90565b9350602085013567ffffffffffffffff80821115620020ee57600080fd5b620020fc888389016200208b565b945060408701359150808211156200211357600080fd5b620021218883890162001ecd565b935060608701359150808211156200213857600080fd5b50620021478782880162001f49565b91505092959194509250565b6000806000606084860312156200216957600080fd5b83359250602084013567ffffffffffffffff808211156200218957600080fd5b620021978783880162001ecd565b93506040860135915080821115620021ae57600080fd5b50620021bd8682870162001f49565b9150509250925092565b60008060408385031215620021db57600080fd5b620021e68362001d90565b915060208301358015158114620021fc57600080fd5b809150509250929050565b600080600080608085870312156200221e57600080fd5b620022298562001d90565b9350620022396020860162001d90565b925060408501359150606085013567ffffffffffffffff8111156200225d57600080fd5b8501601f810187136200226f57600080fd5b62002147878235602084016200202d565b600080604083850312156200229457600080fd5b6200229f8362001d90565b9150602083013567ffffffffffffffff811115620022bc57600080fd5b62002023858286016200208b565b60008060408385031215620022de57600080fd5b620022e98362001d90565b9150620022f96020840162001d90565b90509250929050565b600181811c908216806200231757607f821691505b6020821081036200233857634e487b7160e01b600052602260045260246000fd5b50919050565b6020808252602d908201527f4552433732313a2063616c6c6572206973206e6f7420746f6b656e206f776e6560408201526c1c881bdc88185c1c1c9bdd9959609a1b606082015260800190565b634e487b7160e01b600052601160045260246000fd5b80820281158282048414176200051c576200051c6200238b565b600082620023d957634e487b7160e01b600052601260045260246000fd5b500490565b634e487b7160e01b600052603260045260246000fd5b6001600160601b038181168382160190808211156200241757620024176200238b565b5092915050565b60006001600160601b038083168181036200243d576200243d6200238b565b6001019392505050565b604080825283519082018190526000906020906060840190828701845b828110156200248b5781516001600160a01b03168452928401929084019060010162002464565b5050508381038285015284518082528583019183019060005b81811015620024cb5783516001600160601b031683529284019291840191600101620024a4565b5090979650505050505050565b60208082526025908201527f4552433732313a207472616e736665722066726f6d20696e636f72726563742060408201526437bbb732b960d91b606082015260800190565b6020808252602a908201527f455243323938313a20726f79616c7479206665652077696c6c206578636565646040820152692073616c65507269636560b01b606082015260800190565b601f8211156200070457600081815260208120601f850160051c81016020861015620025905750805b601f850160051c820191505b81811015620025b1578281556001016200259c565b505050505050565b815167ffffffffffffffff811115620025d657620025d662001e5c565b620025ee81620025e7845462002302565b8462002567565b602080601f8311600181146200262657600084156200260d5750858301515b600019600386901b1c1916600185901b178555620025b1565b600085815260208120601f198616915b82811015620026575788860151825594840194600190910190840162002636565b5085821015620026765787850151600019600388901b60f8161c191681555b5050505050600190811b01905550565b60208082526032908201527f4552433732313a207472616e7366657220746f206e6f6e20455243373231526560408201527131b2b4bb32b91034b6b83632b6b2b73a32b960711b606082015260800190565b60008351620026ec81846020880162001d0d565b8351908301906200270281836020880162001d0d565b01949350505050565b6001600160a01b0385811682528416602082015260408101839052608060608201819052600090620027409083018462001d33565b9695505050505050565b6000602082840312156200275d57600080fd5b815162000d618162001cd656fe60806040523480156200001157600080fd5b50604051620012e4380380620012e48339810160408190526200003491620004b0565b6200003f336200013d565b8051825114620000ad576040805162461bcd60e51b8152602060048201526024810191909152600080516020620012c483398151915260448201527f697665727320616e6420536861726573206c656e677468206d69736d6174636860648201526084015b60405180910390fd5b60005b8251816001600160601b0316101562000134576200011f83826001600160601b031681518110620000e557620000e56200058e565b602002602001015183836001600160601b0316815181106200010b576200010b6200058e565b60200260200101516200018d60201b60201c565b806200012b81620005ba565b915050620000b0565b50505062000615565b600080546001600160a01b038381166001600160a01b0319831681178455604051919092169283917f8be0079c531659141344cd1fd0a4f28419497f9722a3daafe3b4186f6b6457e09190a35050565b6200019762000359565b6001600160a01b038216620002045760405162461bcd60e51b81526020600482015260346024820152600080516020620012c483398151915260448201527f69766572206973207a65726f20616464726573730000000000000000000000006064820152608401620000a4565b6000816001600160601b031611620002715760405162461bcd60e51b815260206004820152602960248201527f53686f70796368616e67655061796d656e7453706c69747465723a205368617260448201526865206973207a65726f60b81b6064820152608401620000a4565b604080516060810182526001600160a01b0384811682526001600160601b03848116602084019081526000948401858152600280546001810182558188529551925192909416600160a01b9284168302177f405787fa12a823e0f2b7631cc41b3ba8828b3321ca811111fa75cd3aa3bb5ace959094029485019390935591517f405787fa12a823e0f2b7631cc41b3ba8828b3321ca811111fa75cd3aa3bb5acf9093019290925582548493926014926200033192869291900416620005eb565b92506101000a8154816001600160601b0302191690836001600160601b031602179055505050565b6000546001600160a01b03163314620003b55760405162461bcd60e51b815260206004820181905260248201527f4f776e61626c653a2063616c6c6572206973206e6f7420746865206f776e65726044820152606401620000a4565b565b634e487b7160e01b600052604160045260246000fd5b604051601f8201601f191681016001600160401b0381118282101715620003f857620003f8620003b7565b604052919050565b60006001600160401b038211156200041c576200041c620003b7565b5060051b60200190565b600082601f8301126200043857600080fd5b81516020620004516200044b8362000400565b620003cd565b82815260059290921b840181019181810190868411156200047157600080fd5b8286015b84811015620004a55780516001600160601b0381168114620004975760008081fd5b835291830191830162000475565b509695505050505050565b60008060408385031215620004c457600080fd5b82516001600160401b0380821115620004dc57600080fd5b818501915085601f830112620004f157600080fd5b81516020620005046200044b8362000400565b82815260059290921b840181019181810190898411156200052457600080fd5b948201945b838610156200055b5785516001600160a01b03811681146200054b5760008081fd5b8252948201949082019062000529565b918801519196509093505050808211156200057557600080fd5b50620005848582860162000426565b9150509250929050565b634e487b7160e01b600052603260045260246000fd5b634e487b7160e01b600052601160045260246000fd5b60006001600160601b038281166002600160601b03198101620005e157620005e1620005a4565b6001019392505050565b6001600160601b038181168382160190808211156200060e576200060e620005a4565b5092915050565b610c9f80620006256000396000f3fe60806040526004361061008a5760003560e01c8063715018a611610059578063715018a6146101635780638b6a1595146101785780638da5cb5b14610198578063e061646b146101c0578063f2fde38b146101e257600080fd5b80632977c166146100ce57806362b85d96146100f057806366399484146101235780636a2364281461014357600080fd5b366100c957604080513381523460208201527f6ef95f06320e7a25a04a175ca677b7052bdd97131872c2192525a629f51be770910160405180910390a1005b600080fd5b3480156100da57600080fd5b506100ee6100e9366004610a90565b610202565b005b3480156100fc57600080fd5b5061011061010b366004610a90565b61043c565b6040519081526020015b60405180910390f35b34801561012f57600080fd5b5061011061013e366004610a90565b6104a5565b34801561014f57600080fd5b506100ee61015e366004610ac2565b6104dc565b34801561016f57600080fd5b506100ee6106a8565b34801561018457600080fd5b506100ee610193366004610a90565b6106bc565b3480156101a457600080fd5b506000546040516001600160a01b03909116815260200161011a565b3480156101cc57600080fd5b506101d5610883565b60405161011a9190610af5565b3480156101ee57600080fd5b506100ee6101fd366004610b60565b610910565b60006002826001600160601b03168154811061022057610220610b7b565b6000918252602090912060029091020154600160a01b90046001600160601b0316116102a25760405162461bcd60e51b815260206004820152602660248201527f5061796d656e7453706c69747465723a206163636f756e7420686173206e6f2060448201526573686172657360d01b60648201526084015b60405180910390fd5b60006102ad8261043c565b9050806000036103135760405162461bcd60e51b815260206004820152602b60248201527f5061796d656e7453706c69747465723a206163636f756e74206973206e6f742060448201526a191d59481c185e5b595b9d60aa1b6064820152608401610299565b80600160008282546103259190610ba7565b92505081905550806002836001600160601b03168154811061034957610349610b7b565b9060005260206000209060020201600101600082825401925050819055506002826001600160601b03168154811061038357610383610b7b565b600091825260208220600290910201546040516001600160a01b039091169183156108fc02918491818181858888f193505050501580156103c8573d6000803e3d6000fd5b507fdf20fd1e76bc69d672e4814fafb2c449bba3a5369d8359adf9e05e6fde87b0566002836001600160601b03168154811061040657610406610b7b565b600091825260209182902060029091020154604080516001600160a01b0390921682529181018490520160405180910390a15050565b6000806001544761044d9190610ba7565b905061049e6002846001600160601b03168154811061046e5761046e610b7b565b6000918252602090912060029091020154600160a01b90046001600160601b031682610499866104a5565b610989565b9392505050565b60006002826001600160601b0316815481106104c3576104c3610b7b565b9060005260206000209060020201600101549050919050565b6104e46109ca565b6001600160a01b0382166105575760405162461bcd60e51b815260206004820152603460248201527f53686f70796368616e67655061796d656e7453706c69747465723a205265636560448201527369766572206973207a65726f206164647265737360601b6064820152608401610299565b6000816001600160601b0316116105c25760405162461bcd60e51b815260206004820152602960248201527f53686f70796368616e67655061796d656e7453706c69747465723a205368617260448201526865206973207a65726f60b81b6064820152608401610299565b604080516060810182526001600160a01b0384811682526001600160601b03848116602084019081526000948401858152600280546001810182558188529551925192909416600160a01b9284168302177f405787fa12a823e0f2b7631cc41b3ba8828b3321ca811111fa75cd3aa3bb5ace959094029485019390935591517f405787fa12a823e0f2b7631cc41b3ba8828b3321ca811111fa75cd3aa3bb5acf90930192909255825484939260149261068092869291900416610bc0565b92506101000a8154816001600160601b0302191690836001600160601b031602179055505050565b6106b06109ca565b6106ba6000610a24565b565b6106c46109ca565b6002546001600160601b038216106107365760405162461bcd60e51b815260206004820152602f60248201527f53686f70796368616e67655061796d656e7453706c69747465723a20496e646560448201526e78206f7574206f6620626f756e647360881b6064820152608401610299565b6002816001600160601b03168154811061075257610752610b7b565b6000918252602082206002909102015481546001600160601b03600160a01b928390048116939260149261078b92869290910416610be7565b92506101000a8154816001600160601b0302191690836001600160601b03160217905550600260016002805490506107c39190610c07565b815481106107d3576107d3610b7b565b90600052602060002090600202016002826001600160601b0316815481106107fd576107fd610b7b565b600091825260209091208254600292830290910180546001600160a01b0319166001600160a01b03909216918217815583546001600160601b03600160a01b918290041602909117815560019283015492019190915580548061086257610862610c1a565b60008281526020812060026000199093019283020181815560010155905550565b60606002805480602002602001604051908101604052809291908181526020016000905b82821015610907576000848152602090819020604080516060810182526002860290920180546001600160a01b0381168452600160a01b90046001600160601b0316838501526001908101549183019190915290835290920191016108a7565b50505050905090565b6109186109ca565b6001600160a01b03811661097d5760405162461bcd60e51b815260206004820152602660248201527f4f776e61626c653a206e6577206f776e657220697320746865207a65726f206160448201526564647265737360d01b6064820152608401610299565b61098681610a24565b50565b6000805482906001600160601b03600160a01b9091048116906109ae90871686610c30565b6109b89190610c47565b6109c29190610c07565b949350505050565b6000546001600160a01b031633146106ba5760405162461bcd60e51b815260206004820181905260248201527f4f776e61626c653a2063616c6c6572206973206e6f7420746865206f776e65726044820152606401610299565b600080546001600160a01b038381166001600160a01b0319831681178455604051919092169283917f8be0079c531659141344cd1fd0a4f28419497f9722a3daafe3b4186f6b6457e09190a35050565b80356001600160601b0381168114610a8b57600080fd5b919050565b600060208284031215610aa257600080fd5b61049e82610a74565b80356001600160a01b0381168114610a8b57600080fd5b60008060408385031215610ad557600080fd5b610ade83610aab565b9150610aec60208401610a74565b90509250929050565b602080825282518282018190526000919060409081850190868401855b82811015610b5357815180516001600160a01b03168552868101516001600160601b0316878601528501518585015260609093019290850190600101610b12565b5091979650505050505050565b600060208284031215610b7257600080fd5b61049e82610aab565b634e487b7160e01b600052603260045260246000fd5b634e487b7160e01b600052601160045260246000fd5b80820180821115610bba57610bba610b91565b92915050565b6001600160601b03818116838216019080821115610be057610be0610b91565b5092915050565b6001600160601b03828116828216039080821115610be057610be0610b91565b81810381811115610bba57610bba610b91565b634e487b7160e01b600052603160045260246000fd5b8082028115828204841417610bba57610bba610b91565b600082610c6457634e487b7160e01b600052601260045260246000fd5b50049056fea26469706673582212206068825b5c358d1bc3e93eb9fb234c4fcd752eb300273c07061b7b64c6085f7964736f6c6343000812003353686f70796368616e67655061796d656e7453706c69747465723a2052656365a2646970667358221220ce165677c47103181cb008ce48b181a9101b73693d0e342fd9112b391838cd1564736f6c6343000812003360806040523480156200001157600080fd5b50604051620012e4380380620012e48339810160408190526200003491620004b0565b6200003f336200013d565b8051825114620000ad576040805162461bcd60e51b8152602060048201526024810191909152600080516020620012c483398151915260448201527f697665727320616e6420536861726573206c656e677468206d69736d6174636860648201526084015b60405180910390fd5b60005b8251816001600160601b0316101562000134576200011f83826001600160601b031681518110620000e557620000e56200058e565b602002602001015183836001600160601b0316815181106200010b576200010b6200058e565b60200260200101516200018d60201b60201c565b806200012b81620005ba565b915050620000b0565b50505062000615565b600080546001600160a01b038381166001600160a01b0319831681178455604051919092169283917f8be0079c531659141344cd1fd0a4f28419497f9722a3daafe3b4186f6b6457e09190a35050565b6200019762000359565b6001600160a01b038216620002045760405162461bcd60e51b81526020600482015260346024820152600080516020620012c483398151915260448201527f69766572206973207a65726f20616464726573730000000000000000000000006064820152608401620000a4565b6000816001600160601b031611620002715760405162461bcd60e51b815260206004820152602960248201527f53686f70796368616e67655061796d656e7453706c69747465723a205368617260448201526865206973207a65726f60b81b6064820152608401620000a4565b604080516060810182526001600160a01b0384811682526001600160601b03848116602084019081526000948401858152600280546001810182558188529551925192909416600160a01b9284168302177f405787fa12a823e0f2b7631cc41b3ba8828b3321ca811111fa75cd3aa3bb5ace959094029485019390935591517f405787fa12a823e0f2b7631cc41b3ba8828b3321ca811111fa75cd3aa3bb5acf9093019290925582548493926014926200033192869291900416620005eb565b92506101000a8154816001600160601b0302191690836001600160601b031602179055505050565b6000546001600160a01b03163314620003b55760405162461bcd60e51b815260206004820181905260248201527f4f776e61626c653a2063616c6c6572206973206e6f7420746865206f776e65726044820152606401620000a4565b565b634e487b7160e01b600052604160045260246000fd5b604051601f8201601f191681016001600160401b0381118282101715620003f857620003f8620003b7565b604052919050565b60006001600160401b038211156200041c576200041c620003b7565b5060051b60200190565b600082601f8301126200043857600080fd5b81516020620004516200044b8362000400565b620003cd565b82815260059290921b840181019181810190868411156200047157600080fd5b8286015b84811015620004a55780516001600160601b0381168114620004975760008081fd5b835291830191830162000475565b509695505050505050565b60008060408385031215620004c457600080fd5b82516001600160401b0380821115620004dc57600080fd5b818501915085601f830112620004f157600080fd5b81516020620005046200044b8362000400565b82815260059290921b840181019181810190898411156200052457600080fd5b948201945b838610156200055b5785516001600160a01b03811681146200054b5760008081fd5b8252948201949082019062000529565b918801519196509093505050808211156200057557600080fd5b50620005848582860162000426565b9150509250929050565b634e487b7160e01b600052603260045260246000fd5b634e487b7160e01b600052601160045260246000fd5b60006001600160601b038281166002600160601b03198101620005e157620005e1620005a4565b6001019392505050565b6001600160601b038181168382160190808211156200060e576200060e620005a4565b5092915050565b610c9f80620006256000396000f3fe60806040526004361061008a5760003560e01c8063715018a611610059578063715018a6146101635780638b6a1595146101785780638da5cb5b14610198578063e061646b146101c0578063f2fde38b146101e257600080fd5b80632977c166146100ce57806362b85d96146100f057806366399484146101235780636a2364281461014357600080fd5b366100c957604080513381523460208201527f6ef95f06320e7a25a04a175ca677b7052bdd97131872c2192525a629f51be770910160405180910390a1005b600080fd5b3480156100da57600080fd5b506100ee6100e9366004610a90565b610202565b005b3480156100fc57600080fd5b5061011061010b366004610a90565b61043c565b6040519081526020015b60405180910390f35b34801561012f57600080fd5b5061011061013e366004610a90565b6104a5565b34801561014f57600080fd5b506100ee61015e366004610ac2565b6104dc565b34801561016f57600080fd5b506100ee6106a8565b34801561018457600080fd5b506100ee610193366004610a90565b6106bc565b3480156101a457600080fd5b506000546040516001600160a01b03909116815260200161011a565b3480156101cc57600080fd5b506101d5610883565b60405161011a9190610af5565b3480156101ee57600080fd5b506100ee6101fd366004610b60565b610910565b60006002826001600160601b03168154811061022057610220610b7b565b6000918252602090912060029091020154600160a01b90046001600160601b0316116102a25760405162461bcd60e51b815260206004820152602660248201527f5061796d656e7453706c69747465723a206163636f756e7420686173206e6f2060448201526573686172657360d01b60648201526084015b60405180910390fd5b60006102ad8261043c565b9050806000036103135760405162461bcd60e51b815260206004820152602b60248201527f5061796d656e7453706c69747465723a206163636f756e74206973206e6f742060448201526a191d59481c185e5b595b9d60aa1b6064820152608401610299565b80600160008282546103259190610ba7565b92505081905550806002836001600160601b03168154811061034957610349610b7b565b9060005260206000209060020201600101600082825401925050819055506002826001600160601b03168154811061038357610383610b7b565b600091825260208220600290910201546040516001600160a01b039091169183156108fc02918491818181858888f193505050501580156103c8573d6000803e3d6000fd5b507fdf20fd1e76bc69d672e4814fafb2c449bba3a5369d8359adf9e05e6fde87b0566002836001600160601b03168154811061040657610406610b7b565b600091825260209182902060029091020154604080516001600160a01b0390921682529181018490520160405180910390a15050565b6000806001544761044d9190610ba7565b905061049e6002846001600160601b03168154811061046e5761046e610b7b565b6000918252602090912060029091020154600160a01b90046001600160601b031682610499866104a5565b610989565b9392505050565b60006002826001600160601b0316815481106104c3576104c3610b7b565b9060005260206000209060020201600101549050919050565b6104e46109ca565b6001600160a01b0382166105575760405162461bcd60e51b815260206004820152603460248201527f53686f70796368616e67655061796d656e7453706c69747465723a205265636560448201527369766572206973207a65726f206164647265737360601b6064820152608401610299565b6000816001600160601b0316116105c25760405162461bcd60e51b815260206004820152602960248201527f53686f70796368616e67655061796d656e7453706c69747465723a205368617260448201526865206973207a65726f60b81b6064820152608401610299565b604080516060810182526001600160a01b0384811682526001600160601b03848116602084019081526000948401858152600280546001810182558188529551925192909416600160a01b9284168302177f405787fa12a823e0f2b7631cc41b3ba8828b3321ca811111fa75cd3aa3bb5ace959094029485019390935591517f405787fa12a823e0f2b7631cc41b3ba8828b3321ca811111fa75cd3aa3bb5acf90930192909255825484939260149261068092869291900416610bc0565b92506101000a8154816001600160601b0302191690836001600160601b031602179055505050565b6106b06109ca565b6106ba6000610a24565b565b6106c46109ca565b6002546001600160601b038216106107365760405162461bcd60e51b815260206004820152602f60248201527f53686f70796368616e67655061796d656e7453706c69747465723a20496e646560448201526e78206f7574206f6620626f756e647360881b6064820152608401610299565b6002816001600160601b03168154811061075257610752610b7b565b6000918252602082206002909102015481546001600160601b03600160a01b928390048116939260149261078b92869290910416610be7565b92506101000a8154816001600160601b0302191690836001600160601b03160217905550600260016002805490506107c39190610c07565b815481106107d3576107d3610b7b565b90600052602060002090600202016002826001600160601b0316815481106107fd576107fd610b7b565b600091825260209091208254600292830290910180546001600160a01b0319166001600160a01b03909216918217815583546001600160601b03600160a01b918290041602909117815560019283015492019190915580548061086257610862610c1a565b60008281526020812060026000199093019283020181815560010155905550565b60606002805480602002602001604051908101604052809291908181526020016000905b82821015610907576000848152602090819020604080516060810182526002860290920180546001600160a01b0381168452600160a01b90046001600160601b0316838501526001908101549183019190915290835290920191016108a7565b50505050905090565b6109186109ca565b6001600160a01b03811661097d5760405162461bcd60e51b815260206004820152602660248201527f4f776e61626c653a206e6577206f776e657220697320746865207a65726f206160448201526564647265737360d01b6064820152608401610299565b61098681610a24565b50565b6000805482906001600160601b03600160a01b9091048116906109ae90871686610c30565b6109b89190610c47565b6109c29190610c07565b949350505050565b6000546001600160a01b031633146106ba5760405162461bcd60e51b815260206004820181905260248201527f4f776e61626c653a2063616c6c6572206973206e6f7420746865206f776e65726044820152606401610299565b600080546001600160a01b038381166001600160a01b0319831681178455604051919092169283917f8be0079c531659141344cd1fd0a4f28419497f9722a3daafe3b4186f6b6457e09190a35050565b80356001600160601b0381168114610a8b57600080fd5b919050565b600060208284031215610aa257600080fd5b61049e82610a74565b80356001600160a01b0381168114610a8b57600080fd5b60008060408385031215610ad557600080fd5b610ade83610aab565b9150610aec60208401610a74565b90509250929050565b602080825282518282018190526000919060409081850190868401855b82811015610b5357815180516001600160a01b03168552868101516001600160601b0316878601528501518585015260609093019290850190600101610b12565b5091979650505050505050565b600060208284031215610b7257600080fd5b61049e82610aab565b634e487b7160e01b600052603260045260246000fd5b634e487b7160e01b600052601160045260246000fd5b80820180821115610bba57610bba610b91565b92915050565b6001600160601b03818116838216019080821115610be057610be0610b91565b5092915050565b6001600160601b03828116828216039080821115610be057610be0610b91565b81810381811115610bba57610bba610b91565b634e487b7160e01b600052603160045260246000fd5b8082028115828204841417610bba57610bba610b91565b600082610c6457634e487b7160e01b600052601260045260246000fd5b50049056fea26469706673582212206068825b5c358d1bc3e93eb9fb234c4fcd752eb300273c07061b7b64c6085f7964736f6c6343000812003353686f70796368616e67655061796d656e7453706c69747465723a2052656365a2646970667358221220f554b2029458e8f6520f8f48398df24fff67388b59408d5fa2403f2f91cfcc5464736f6c63430008120033",
  "linkReferences": {},
  "deployedLinkReferences": {}
}