{
  "_format": "hh-sol-artifact-1",
  "contractName": "ShopychangeStorage",
  "sourceName": "contracts/Storage/ShopychangeStorage.sol",
  "abi": [
    {
      "inputs": [],
      "stateMutability": "nonpayable",
      "type": "constructor"
    },
    {
      "anonymous": false,
      "inputs": [
        {
          "indexed": true,
          "internalType": "address",
          "name": "owner",
          "type": "address"
        },
        {
          "indexed": true,
          "internalType": "address",
          "name": "approved",
          "type": "address"
        },
        {
          "indexed": true,
          "internalType": "uint256",
          "name": "tokenId",
          "type": "uint256"
        }
      ],
      "name": "Approval",
      "type": "event"
    },
    {
      "anonymous": false,
      "inputs": [
        {
          "indexed": true,
          "internalType": "address",
          "name": "owner",
          "type": "address"
        },
        {
          "indexed": true,
          "internalType": "address",
          "name": "operator",
          "type": "address"
        },
        {
          "indexed": false,
          "internalType": "bool",
          "name": "approved",
          "type": "bool"
        }
      ],
      "name": "ApprovalForAll",
      "type": "event"
    },
    {
      "anonymous": false,
      "inputs": [
        {
          "indexed": false,
          "internalType": "uint256",
          "name": "_fromTokenId",
          "type": "uint256"
        },
        {
          "indexed": false,
          "internalType": "uint256",
          "name": "_toTokenId",
          "type": "uint256"
        }
      ],
      "name": "BatchMetadataUpdate",
      "type": "event"
    },
    {
      "anonymous": false,
      "inputs": [
        {
          "indexed": false,
          "internalType": "uint256",
          "name": "_tokenId",
          "type": "uint256"
        }
      ],
      "name": "MetadataUpdate",
      "type": "event"
    },
    {
      "anonymous": false,
      "inputs": [
        {
          "indexed": true,
          "internalType": "address",
          "name": "previousOwner",
          "type": "address"
        },
        {
          "indexed": true,
          "internalType": "address",
          "name": "newOwner",
          "type": "address"
        }
      ],
      "name": "OwnershipTransferred",
      "type": "event"
    },
    {
      "anonymous": false,
      "inputs": [
        {
          "indexed": true,
          "internalType": "address",
          "name": "from",
          "type": "address"
        },
        {
          "indexed": true,
          "internalType": "address",
          "name": "to",
          "type": "address"
        },
        {
          "indexed": true,
          "internalType": "uint256",
          "name": "tokenId",
          "type": "uint256"
        }
      ],
      "name": "Transfer",
      "type": "event"
    },
    {
      "inputs": [],
      "name": "IERC2981MultiReceiver_ID",
      "outputs": [
        {
          "internalType": "bytes4",
          "name": "",
          "type": "bytes4"
        }
      ],
      "stateMutability": "view",
      "type": "function"
    },
    {
      "inputs": [],
      "name": "IERC2981_ID",
      "outputs": [
        {
          "internalType": "bytes4",
          "name": "",
          "type": "bytes4"
        }
      ],
      "stateMutability": "view",
      "type": "function"
    },
    {
      "inputs": [
        {
          "internalType": "address",
          "name": "to",
          "type": "address"
        },
        {
          "internalType": "uint256",
          "name": "tokenId",
          "type": "uint256"
        }
      ],
      "name": "approve",
      "outputs": [],
      "stateMutability": "nonpayable",
      "type": "function"
    },
    {
      "inputs": [
        {
          "internalType": "address",
          "name": "owner",
          "type": "address"
        }
      ],
      "name": "balanceOf",
      "outputs": [
        {
          "internalType": "uint256",
          "name": "",
          "type": "uint256"
        }
      ],
      "stateMutability": "view",
      "type": "function"
    },
    {
      "inputs": [
        {
          "internalType": "uint256",
          "name": "tokenId",
          "type": "uint256"
        }
      ],
      "name": "burn",
      "outputs": [],
      "stateMutability": "nonpayable",
      "type": "function"
    },
    {
      "inputs": [],
      "name": "deleteDefaultRoyalty",
      "outputs": [],
      "stateMutability": "nonpayable",
      "type": "function"
    },
    {
      "inputs": [
        {
          "internalType": "uint256",
          "name": "tokenId",
          "type": "uint256"
        }
      ],
      "name": "getApproved",
      "outputs": [
        {
          "internalType": "address",
          "name": "",
          "type": "address"
        }
      ],
      "stateMutability": "view",
      "type": "function"
    },
    {
      "inputs": [],
      "name": "hasDefaultPaymentSplitter",
      "outputs": [
        {
          "internalType": "bool",
          "name": "",
          "type": "bool"
        }
      ],
      "stateMutability": "view",
      "type": "function"
    },
    {
      "inputs": [
        {
          "internalType": "uint256",
          "name": "_tokenId",
          "type": "uint256"
        }
      ],
      "name": "hasPaymentSplitter",
      "outputs": [
        {
          "internalType": "bool",
          "name": "",
          "type": "bool"
        }
      ],
      "stateMutability": "view",
      "type": "function"
    },
    {
      "inputs": [
        {
          "internalType": "uint256",
          "name": "_tokenId",
          "type": "uint256"
        }
      ],
      "name": "hasPersonalizedRoyalties",
      "outputs": [
        {
          "internalType": "bool",
          "name": "",
          "type": "bool"
        }
      ],
      "stateMutability": "view",
      "type": "function"
    },
    {
      "inputs": [
        {
          "internalType": "address",
          "name": "owner",
          "type": "address"
        },
        {
          "internalType": "address",
          "name": "operator",
          "type": "address"
        }
      ],
      "name": "isApprovedForAll",
      "outputs": [
        {
          "internalType": "bool",
          "name": "",
          "type": "bool"
        }
      ],
      "stateMutability": "view",
      "type": "function"
    },
    {
      "inputs": [
        {
          "internalType": "string",
          "name": "tokenURI",
          "type": "string"
        }
      ],
      "name": "mint",
      "outputs": [
        {
          "internalType": "uint256",
          "name": "",
          "type": "uint256"
        }
      ],
      "stateMutability": "nonpayable",
      "type": "function"
    },
    {
      "inputs": [
        {
          "internalType": "string",
          "name": "tokenURI",
          "type": "string"
        },
        {
          "internalType": "address[]",
          "name": "_royaltyReceiver",
          "type": "address[]"
        },
        {
          "internalType": "uint96[]",
          "name": "_royaltyFraction",
          "type": "uint96[]"
        }
      ],
      "name": "mintWithRoyalties",
      "outputs": [
        {
          "internalType": "uint256",
          "name": "",
          "type": "uint256"
        }
      ],
      "stateMutability": "nonpayable",
      "type": "function"
    },
    {
      "inputs": [],
      "name": "name",
      "outputs": [
        {
          "internalType": "string",
          "name": "",
          "type": "string"
        }
      ],
      "stateMutability": "view",
      "type": "function"
    },
    {
      "inputs": [],
      "name": "owner",
      "outputs": [
        {
          "internalType": "address",
          "name": "",
          "type": "address"
        }
      ],
      "stateMutability": "view",
      "type": "function"
    },
    {
      "inputs": [
        {
          "internalType": "uint256",
          "name": "tokenId",
          "type": "uint256"
        }
      ],
      "name": "ownerOf",
      "outputs": [
        {
          "internalType": "address",
          "name": "",
          "type": "address"
        }
      ],
      "stateMutability": "view",
      "type": "function"
    },
    {
      "inputs": [],
      "name": "renounceOwnership",
      "outputs": [],
      "stateMutability": "nonpayable",
      "type": "function"
    },
    {
      "inputs": [
        {
          "internalType": "uint256",
          "name": "_tokenId",
          "type": "uint256"
        }
      ],
      "name": "resetTokenRoyalty",
      "outputs": [],
      "stateMutability": "nonpayable",
      "type": "function"
    },
    {
      "inputs": [
        {
          "internalType": "uint256",
          "name": "tokenId",
          "type": "uint256"
        },
        {
          "internalType": "uint256",
          "name": "salePrice",
          "type": "uint256"
        }
      ],
      "name": "royaltyInfo",
      "outputs": [
        {
          "internalType": "address",
          "name": "",
          "type": "address"
        },
        {
          "internalType": "uint256",
          "name": "",
          "type": "uint256"
        }
      ],
      "stateMutability": "view",
      "type": "function"
    },
    {
      "inputs": [
        {
          "internalType": "address",
          "name": "from",
          "type": "address"
        },
        {
          "internalType": "address",
          "name": "to",
          "type": "address"
        },
        {
          "internalType": "uint256",
          "name": "tokenId",
          "type": "uint256"
        }
      ],
      "name": "safeTransferFrom",
      "outputs": [],
      "stateMutability": "nonpayable",
      "type": "function"
    },
    {
      "inputs": [
        {
          "internalType": "address",
          "name": "from",
          "type": "address"
        },
        {
          "internalType": "address",
          "name": "to",
          "type": "address"
        },
        {
          "internalType": "uint256",
          "name": "tokenId",
          "type": "uint256"
        },
        {
          "internalType": "bytes",
          "name": "data",
          "type": "bytes"
        }
      ],
      "name": "safeTransferFrom",
      "outputs": [],
      "stateMutability": "nonpayable",
      "type": "function"
    },
    {
      "inputs": [
        {
          "internalType": "address",
          "name": "operator",
          "type": "address"
        },
        {
          "internalType": "bool",
          "name": "approved",
          "type": "bool"
        }
      ],
      "name": "setApprovalForAll",
      "outputs": [],
      "stateMutability": "nonpayable",
      "type": "function"
    },
    {
      "inputs": [
        {
          "internalType": "address[]",
          "name": "_royaltyReceiver",
          "type": "address[]"
        },
        {
          "internalType": "uint96[]",
          "name": "_royaltyFraction",
          "type": "uint96[]"
        }
      ],
      "name": "setDefaultRoyalty",
      "outputs": [],
      "stateMutability": "nonpayable",
      "type": "function"
    },
    {
      "inputs": [
        {
          "internalType": "uint256",
          "name": "_tokenId",
          "type": "uint256"
        },
        {
          "internalType": "address[]",
          "name": "_royaltyReceiver",
          "type": "address[]"
        },
        {
          "internalType": "uint96[]",
          "name": "_royaltyFraction",
          "type": "uint96[]"
        }
      ],
      "name": "setTokenRoyalty",
      "outputs": [],
      "stateMutability": "nonpayable",
      "type": "function"
    },
    {
      "inputs": [
        {
          "internalType": "bytes4",
          "name": "interfaceId",
          "type": "bytes4"
        }
      ],
      "name": "supportsInterface",
      "outputs": [
        {
          "internalType": "bool",
          "name": "",
          "type": "bool"
        }
      ],
      "stateMutability": "view",
      "type": "function"
    },
    {
      "inputs": [],
      "name": "symbol",
      "outputs": [
        {
          "internalType": "string",
          "name": "",
          "type": "string"
        }
      ],
      "stateMutability": "view",
      "type": "function"
    },
    {
      "inputs": [
        {
          "internalType": "uint256",
          "name": "tokenId",
          "type": "uint256"
        }
      ],
      "name": "tokenURI",
      "outputs": [
        {
          "internalType": "string",
          "name": "",
          "type": "string"
        }
      ],
      "stateMutability": "view",
      "type": "function"
    },
    {
      "inputs": [
        {
          "internalType": "address",
          "name": "from",
          "type": "address"
        },
        {
          "internalType": "address",
          "name": "to",
          "type": "address"
        },
        {
          "internalType": "uint256",
          "name": "tokenId",
          "type": "uint256"
        }
      ],
      "name": "transferFrom",
      "outputs": [],
      "stateMutability": "nonpayable",
      "type": "function"
    },
    {
      "inputs": [
        {
          "internalType": "address",
          "name": "newOwner",
          "type": "address"
        }
      ],
      "name": "transferOwnership",
      "outputs": [],
      "stateMutability": "nonpayable",
      "type": "function"
    }
  ],
  "bytecode": "0x60806040523480156200001157600080fd5b506040518060400160405280601381526020017f53686f70796368616e67652053746f72616765000000000000000000000000008152506040518060400160405280600381526020016253485360e81b81525062000074620000be60201b60201c565b6200007e62000118565b620000893362000173565b620000958282620001c3565b5060069050620000a6838262000513565b506007620000b5828262000513565b505050620006f7565b60408051600180825281830190925260609160009190602080830190803683370190505090503081600081518110620000fb57620000fb620005df565b6001600160a01b0390921660209283029190910190910152919050565b6040805160018082528183019092526060916000919060208083019080368337019050509050600081600081518110620001565762000156620005df565b6001600160601b0390921660209283029190910190910152919050565b600080546001600160a01b038381166001600160a01b0319831681178455604051919092169283917f8be0079c531659141344cd1fd0a4f28419497f9722a3daafe3b4186f6b6457e09190a35050565b620001cd620002fd565b815160010362000231576200022382600081518110620001f157620001f1620005df565b6020026020010151826000815181106200020f576200020f620005df565b60200260200101516200035f60201b60201c565b6005805460ff191690555050565b600182511115620002f9576000805b8351816001600160601b031610156200029d5782816001600160601b031681518110620002715762000271620005df565b6020026020010151826200028691906200060b565b915080620002948162000635565b91505062000240565b5060008383604051620002b09062000460565b620002bd92919062000666565b604051809103906000f080158015620002da573d6000803e3d6000fd5b509050620002e981836200035f565b50506005805460ff191660011790555b5050565b6000546001600160a01b031633146200035d5760405162461bcd60e51b815260206004820181905260248201527f4f776e61626c653a2063616c6c6572206973206e6f7420746865206f776e657260448201526064015b60405180910390fd5b565b6127106001600160601b0382161115620003cf5760405162461bcd60e51b815260206004820152602a60248201527f455243323938313a20726f79616c7479206665652077696c6c206578636565646044820152692073616c65507269636560b01b606482015260840162000354565b6001600160a01b038216620004275760405162461bcd60e51b815260206004820152601960248201527f455243323938313a20696e76616c696420726563656976657200000000000000604482015260640162000354565b604080518082019091526001600160a01b039092168083526001600160601b039091166020909201829052600160a01b90910217600155565b6112e480620040e983390190565b634e487b7160e01b600052604160045260246000fd5b600181811c908216806200049957607f821691505b602082108103620004ba57634e487b7160e01b600052602260045260246000fd5b50919050565b601f8211156200050e57600081815260208120601f850160051c81016020861015620004e95750805b601f850160051c820191505b818110156200050a57828155600101620004f5565b5050505b505050565b81516001600160401b038111156200052f576200052f6200046e565b620005478162000540845462000484565b84620004c0565b602080601f8311600181146200057f5760008415620005665750858301515b600019600386901b1c1916600185901b1785556200050a565b600085815260208120601f198616915b82811015620005b0578886015182559484019460019091019084016200058f565b5085821015620005cf5787850151600019600388901b60f8161c191681555b5050505050600190811b01905550565b634e487b7160e01b600052603260045260246000fd5b634e487b7160e01b600052601160045260246000fd5b6001600160601b038181168382160190808211156200062e576200062e620005f5565b5092915050565b60006001600160601b038281166002600160601b031981016200065c576200065c620005f5565b6001019392505050565b604080825283519082018190526000906020906060840190828701845b82811015620006aa5781516001600160a01b03168452928401929084019060010162000683565b5050508381038285015284518082528583019183019060005b81811015620006ea5783516001600160601b031683529284019291840191600101620006c3565b5090979650505050505050565b6139e280620007076000396000f3fe60806040523480156200001157600080fd5b5060043610620001f55760003560e01c80637f7c75a21162000119578063aa1b103f11620000af578063d85d3d27116200007a578063d85d3d27146200047c578063e435e6ab1462000493578063e985e9c514620004b9578063f2fde38b14620004d057600080fd5b8063aa1b103f1462000438578063b794f1e71462000442578063b88d4fde146200044e578063c87b56dd146200046557600080fd5b80638e938efe11620000f05780638e938efe14620003f157806395d0a8aa146200040857806395d89b411462000417578063a22cb465146200042157600080fd5b80637f7c75a214620003a25780638a616bc014620003c85780638da5cb5b14620003df57600080fd5b806342966c68116200018f57806370a08231116200016657806370a082311462000341578063715018a61462000358578063778865ac1462000362578063787d491d146200038b57600080fd5b806342966c6814620002ed5780634849bdfb14620003045780636352211e146200032a57600080fd5b8063095ea7b311620001d0578063095ea7b3146200026f57806323b872dd14620002885780632a55205a146200029f57806342842e0e14620002d657600080fd5b806301ffc9a714620001fa57806306fdde031462000226578063081812fc146200023f575b600080fd5b620002116200020b36600462001ca1565b620004e7565b60405190151581526020015b60405180910390f35b62000230620004fa565b6040516200021d919062001d15565b620002566200025036600462001d2a565b62000594565b6040516001600160a01b0390911681526020016200021d565b620002866200028036600462001d61565b620005bd565b005b620002866200029936600462001d8e565b620006e1565b620002b6620002b036600462001dcf565b6200071a565b604080516001600160a01b0390931683526020830191909152016200021d565b62000286620002e736600462001d8e565b620007cb565b62000286620002fe36600462001d2a565b620007e8565b6200031b6200031536600462001fd9565b62000875565b6040519081526020016200021d565b620002566200033b36600462001d2a565b620008c1565b6200031b620003523660046200206b565b62000923565b62000286620009ab565b62000371637d24ef7960e11b81565b6040516001600160e01b031990911681526020016200021d565b620002866200039c36600462002089565b620009c3565b62000211620003b336600462001d2a565b60009081526004602052604090205460ff1690565b62000286620003d936600462001d2a565b62000af7565b6000546001600160a01b031662000256565b6200028662000402366004620020f4565b62000b38565b6200037163152a902d60e11b81565b6200023062000cb5565b62000286620004323660046200212a565b62000cc6565b6200028662000cd3565b60055460ff1662000211565b620002866200045f3660046200216a565b62000cf4565b620002306200047636600462001d2a565b62000d33565b6200031b6200048d366004620021ef565b62000e4c565b62000211620004a436600462001d2a565b60009081526003602052604090205460ff1690565b62000211620004ca36600462002228565b62000e83565b62000286620004e13660046200206b565b62000eb1565b6000620004f48262000f2d565b92915050565b6060600680546200050b9062002260565b80601f0160208091040260200160405190810160405280929190818152602001828054620005399062002260565b80156200058a5780601f106200055e576101008083540402835291602001916200058a565b820191906000526020600020905b8154815290600101906020018083116200056c57829003601f168201915b5050505050905090565b6000620005a18262000f55565b506000908152600a60205260409020546001600160a01b031690565b6000620005ca82620008c1565b9050806001600160a01b0316836001600160a01b0316036200063d5760405162461bcd60e51b815260206004820152602160248201527f4552433732313a20617070726f76616c20746f2063757272656e74206f776e656044820152603960f91b60648201526084015b60405180910390fd5b336001600160a01b03821614806200065c57506200065c813362000e83565b620006d05760405162461bcd60e51b815260206004820152603d60248201527f4552433732313a20617070726f76652063616c6c6572206973206e6f7420746f60448201527f6b656e206f776e6572206f7220617070726f76656420666f7220616c6c000000606482015260840162000634565b620006dc838362000fb6565b505050565b620006ee335b8262001026565b6200070d5760405162461bcd60e51b815260040162000634906200229c565b620006dc8383836200108c565b60008281526002602090815260408083208151808301909252546001600160a01b038116808352600160a01b9091046001600160601b0316928201929092528291620007905750604080518082019091526001546001600160a01b0381168252600160a01b90046001600160601b031660208201525b602081015160009061271090620007b1906001600160601b031687620022ff565b620007bd919062002319565b915196919550909350505050565b620006dc8383836040518060200160405280600081525062000cf4565b620007f333620006e7565b620008675760405162461bcd60e51b815260206004820152603960248201527f53686f70796368616e676553746f726167653a2063616c6c6572206973206e6f60448201527f7420746f6b656e206f776e6572206f7220617070726f76656400000000000000606482015260840162000634565b6200087281620011fc565b50565b600062000886600d80546001019055565b600062000892600d5490565b9050620008a0338262001243565b620008ac8186620013d4565b620008b981858562000b38565b949350505050565b6000818152600860205260408120546001600160a01b031680620004f45760405162461bcd60e51b8152602060048201526018602482015277115490cdcc8c4e881a5b9d985b1a59081d1bdad95b88125160421b604482015260640162000634565b60006001600160a01b0382166200098f5760405162461bcd60e51b815260206004820152602960248201527f4552433732313a2061646472657373207a65726f206973206e6f7420612076616044820152683634b21037bbb732b960b91b606482015260840162000634565b506001600160a01b031660009081526009602052604090205490565b620009b5620014a3565b620009c16000620014ff565b565b620009cd620014a3565b815160010362000a2b5762000a1d82600081518110620009f157620009f16200233c565b60200260200101518260008151811062000a0f5762000a0f6200233c565b60200260200101516200154f565b6005805460ff191690555050565b60018251111562000af3576000805b8351816001600160601b0316101562000a975782816001600160601b03168151811062000a6b5762000a6b6200233c565b60200260200101518262000a80919062002352565b91508062000a8e816200237c565b91505062000a3a565b506000838360405162000aaa9062001c28565b62000ab7929190620023a5565b604051809103906000f08015801562000ad4573d6000803e3d6000fd5b50905062000ae381836200154f565b50506005805460ff191660011790555b5050565b62000b01620014a3565b600090815260026020908152604080832083905560038252808320805460ff19908116909155600490925290912080549091169055565b62000b42620014a3565b815160010362000bc55762000b93838360008151811062000b675762000b676200233c565b60200260200101518360008151811062000b855762000b856200233c565b60200260200101516200160e565b50506000908152600360209081526040808320805460ff19908116909155600490925290912080549091166001179055565b600182511115620006dc576000805b8351816001600160601b0316101562000c315782816001600160601b03168151811062000c055762000c056200233c565b60200260200101518262000c1a919062002352565b91508062000c28816200237c565b91505062000bd4565b506000838360405162000c449062001c28565b62000c51929190620023a5565b604051809103906000f08015801562000c6e573d6000803e3d6000fd5b50905062000c7e8582846200160e565b5050506000918252506003602090815260408083208054600160ff1991821681179092556004909352922080549091169091179055565b6060600780546200050b9062002260565b62000af3338383620016de565b62000cdd620014a3565b62000ce86000600155565b6005805460ff19169055565b62000d00338362001026565b62000d1f5760405162461bcd60e51b815260040162000634906200229c565b62000d2d84848484620017ae565b50505050565b606062000d408262000f55565b6000828152600c60205260408120805462000d5b9062002260565b80601f016020809104026020016040519081016040528092919081815260200182805462000d899062002260565b801562000dda5780601f1062000dae5761010080835404028352916020019162000dda565b820191906000526020600020905b81548152906001019060200180831162000dbc57829003601f168201915b50505050509050600062000df960408051602081019091526000815290565b9050805160000362000e0c575092915050565b81511562000e4157808260405160200162000e2992919062002436565b60405160208183030381529060405292505050919050565b620008b984620017e8565b600062000e5d600d80546001019055565b600062000e69600d5490565b905062000e77338262001243565b620004f48184620013d4565b6001600160a01b039182166000908152600b6020908152604080832093909416825291909152205460ff1690565b62000ebb620014a3565b6001600160a01b03811662000f225760405162461bcd60e51b815260206004820152602660248201527f4f776e61626c653a206e6577206f776e657220697320746865207a65726f206160448201526564647265737360d01b606482015260840162000634565b6200087281620014ff565b60006001600160e01b03198216632483248360e11b1480620004f45750620004f48262001865565b6000818152600860205260409020546001600160a01b0316620008725760405162461bcd60e51b8152602060048201526018602482015277115490cdcc8c4e881a5b9d985b1a59081d1bdad95b88125160421b604482015260640162000634565b6000818152600a6020526040902080546001600160a01b0319166001600160a01b038416908117909155819062000fed82620008c1565b6001600160a01b03167f8c5be1e5ebec7d5bd14f71427d1e84f3dd0314c0f7b2291e5b200ac8c7c3b92560405160405180910390a45050565b6000806200103483620008c1565b9050806001600160a01b0316846001600160a01b031614806200105e57506200105e818562000e83565b80620008b95750836001600160a01b03166200107a8462000594565b6001600160a01b031614949350505050565b826001600160a01b0316620010a182620008c1565b6001600160a01b031614620010ca5760405162461bcd60e51b8152600401620006349062002469565b6001600160a01b0382166200112e5760405162461bcd60e51b8152602060048201526024808201527f4552433732313a207472616e7366657220746f20746865207a65726f206164646044820152637265737360e01b606482015260840162000634565b826001600160a01b03166200114382620008c1565b6001600160a01b0316146200116c5760405162461bcd60e51b8152600401620006349062002469565b6000818152600a6020908152604080832080546001600160a01b03199081169091556001600160a01b0387811680865260098552838620805460001901905590871680865283862080546001019055868652600890945282852080549092168417909155905184937fddf252ad1be2c89b69c2b068fc378daa952ba7f163c4a11628f55a4df523b3ef91a4505050565b6200120781620018a9565b6000818152600c602052604090208054620012229062002260565b15905062000872576000818152600c60205260408120620008729162001c36565b6001600160a01b0382166200129b5760405162461bcd60e51b815260206004820181905260248201527f4552433732313a206d696e7420746f20746865207a65726f2061646472657373604482015260640162000634565b6000818152600860205260409020546001600160a01b031615620013025760405162461bcd60e51b815260206004820152601c60248201527f4552433732313a20746f6b656e20616c7265616479206d696e74656400000000604482015260640162000634565b6000818152600860205260409020546001600160a01b031615620013695760405162461bcd60e51b815260206004820152601c60248201527f4552433732313a20746f6b656e20616c7265616479206d696e74656400000000604482015260640162000634565b6001600160a01b038216600081815260096020908152604080832080546001019055848352600890915280822080546001600160a01b0319168417905551839291907fddf252ad1be2c89b69c2b068fc378daa952ba7f163c4a11628f55a4df523b3ef908290a45050565b6000828152600860205260409020546001600160a01b0316620014515760405162461bcd60e51b815260206004820152602e60248201527f45524337323155524953746f726167653a2055524920736574206f66206e6f6e60448201526d32bc34b9ba32b73a103a37b5b2b760911b606482015260840162000634565b6000828152600c602052604090206200146b828262002500565b506040518281527ff8e1a15aba9398e019f0b49df1a4fde98ee17ae345cb5f6b5e2c27f5033e8ce79060200160405180910390a15050565b6000546001600160a01b03163314620009c15760405162461bcd60e51b815260206004820181905260248201527f4f776e61626c653a2063616c6c6572206973206e6f7420746865206f776e6572604482015260640162000634565b600080546001600160a01b038381166001600160a01b0319831681178455604051919092169283917f8be0079c531659141344cd1fd0a4f28419497f9722a3daafe3b4186f6b6457e09190a35050565b6127106001600160601b03821611156200157d5760405162461bcd60e51b81526004016200063490620025cd565b6001600160a01b038216620015d55760405162461bcd60e51b815260206004820152601960248201527f455243323938313a20696e76616c696420726563656976657200000000000000604482015260640162000634565b604080518082019091526001600160a01b039092168083526001600160601b039091166020909201829052600160a01b90910217600155565b6127106001600160601b03821611156200163c5760405162461bcd60e51b81526004016200063490620025cd565b6001600160a01b038216620016945760405162461bcd60e51b815260206004820152601b60248201527f455243323938313a20496e76616c696420706172616d65746572730000000000604482015260640162000634565b6040805180820182526001600160a01b0393841681526001600160601b0392831660208083019182526000968752600290529190942093519051909116600160a01b029116179055565b816001600160a01b0316836001600160a01b031603620017415760405162461bcd60e51b815260206004820152601960248201527f4552433732313a20617070726f766520746f2063616c6c657200000000000000604482015260640162000634565b6001600160a01b038381166000818152600b6020908152604080832094871680845294825291829020805460ff191686151590811790915591519182527f17307eab39ab6107e8899845ad3d59bd9653f200f220920489ca2b5937696c31910160405180910390a3505050565b620017bb8484846200108c565b620017c98484848462001942565b62000d2d5760405162461bcd60e51b8152600401620006349062002617565b6060620017f58262000f55565b60006200180d60408051602081019091526000815290565b905060008151116200182f57604051806020016040528060008152506200185e565b806200183b8462001a50565b6040516020016200184e92919062002436565b6040516020818303038152906040525b9392505050565b60006001600160e01b031982166380ac58cd60e01b14806200189757506001600160e01b03198216635b5e139f60e01b145b80620004f45750620004f48262001aea565b6000620018b682620008c1565b9050620018c382620008c1565b6000838152600a6020908152604080832080546001600160a01b03199081169091556001600160a01b0385168085526009845282852080546000190190558785526008909352818420805490911690555192935084927fddf252ad1be2c89b69c2b068fc378daa952ba7f163c4a11628f55a4df523b3ef908390a45050565b60006001600160a01b0384163b1562001a4557604051630a85bd0160e11b81526001600160a01b0385169063150b7a02906200198990339089908890889060040162002669565b6020604051808303816000875af1925050508015620019c7575060408051601f3d908101601f19168201909252620019c491810190620026a8565b60015b62001a2a573d808015620019f8576040519150601f19603f3d011682016040523d82523d6000602084013e620019fd565b606091505b50805160000362001a225760405162461bcd60e51b8152600401620006349062002617565b805181602001fd5b6001600160e01b031916630a85bd0160e11b149050620008b9565b506001949350505050565b6060600062001a5f8362001b12565b600101905060008167ffffffffffffffff81111562001a825762001a8262001df2565b6040519080825280601f01601f19166020018201604052801562001aad576020820181803683370190505b5090508181016020015b600019016f181899199a1a9b1b9c1cb0b131b232b360811b600a86061a8153600a850494508462001ab757509392505050565b60006001600160e01b03198216637d24ef7960e11b1480620004f45750620004f48262001bf1565b60008072184f03e93ff9f4daa797ed6e38ed64bf6a1f0160401b831062001b525772184f03e93ff9f4daa797ed6e38ed64bf6a1f0160401b830492506040015b6d04ee2d6d415b85acef8100000000831062001b7f576d04ee2d6d415b85acef8100000000830492506020015b662386f26fc10000831062001b9e57662386f26fc10000830492506010015b6305f5e100831062001bb7576305f5e100830492506008015b612710831062001bcc57612710830492506004015b6064831062001bdf576064830492506002015b600a8310620004f45760010192915050565b60006001600160e01b0319821663152a902d60e11b1480620004f457506301ffc9a760e01b6001600160e01b0319831614620004f4565b6112e480620026c983390190565b50805462001c449062002260565b6000825580601f1062001c55575050565b601f0160209004906000526020600020908101906200087291905b8082111562001c86576000815560010162001c70565b5090565b6001600160e01b0319811681146200087257600080fd5b60006020828403121562001cb457600080fd5b81356200185e8162001c8a565b60005b8381101562001cde57818101518382015260200162001cc4565b50506000910152565b6000815180845262001d0181602086016020860162001cc1565b601f01601f19169290920160200192915050565b6020815260006200185e602083018462001ce7565b60006020828403121562001d3d57600080fd5b5035919050565b80356001600160a01b038116811462001d5c57600080fd5b919050565b6000806040838503121562001d7557600080fd5b62001d808362001d44565b946020939093013593505050565b60008060006060848603121562001da457600080fd5b62001daf8462001d44565b925062001dbf6020850162001d44565b9150604084013590509250925092565b6000806040838503121562001de357600080fd5b50508035926020909101359150565b634e487b7160e01b600052604160045260246000fd5b604051601f8201601f1916810167ffffffffffffffff8111828210171562001e345762001e3462001df2565b604052919050565b600067ffffffffffffffff83111562001e595762001e5962001df2565b62001e6e601f8401601f191660200162001e08565b905082815283838301111562001e8357600080fd5b828260208301376000602084830101529392505050565b600082601f83011262001eac57600080fd5b6200185e8383356020850162001e3c565b600067ffffffffffffffff82111562001eda5762001eda62001df2565b5060051b60200190565b600082601f83011262001ef657600080fd5b8135602062001f0f62001f098362001ebd565b62001e08565b82815260059290921b8401810191818101908684111562001f2f57600080fd5b8286015b8481101562001f555762001f478162001d44565b835291830191830162001f33565b509695505050505050565b600082601f83011262001f7257600080fd5b8135602062001f8562001f098362001ebd565b82815260059290921b8401810191818101908684111562001fa557600080fd5b8286015b8481101562001f555780356001600160601b038116811462001fcb5760008081fd5b835291830191830162001fa9565b60008060006060848603121562001fef57600080fd5b833567ffffffffffffffff808211156200200857600080fd5b620020168783880162001e9a565b945060208601359150808211156200202d57600080fd5b6200203b8783880162001ee4565b935060408601359150808211156200205257600080fd5b50620020618682870162001f60565b9150509250925092565b6000602082840312156200207e57600080fd5b6200185e8262001d44565b600080604083850312156200209d57600080fd5b823567ffffffffffffffff80821115620020b657600080fd5b620020c48683870162001ee4565b93506020850135915080821115620020db57600080fd5b50620020ea8582860162001f60565b9150509250929050565b6000806000606084860312156200210a57600080fd5b83359250602084013567ffffffffffffffff808211156200202d57600080fd5b600080604083850312156200213e57600080fd5b620021498362001d44565b9150602083013580151581146200215f57600080fd5b809150509250929050565b600080600080608085870312156200218157600080fd5b6200218c8562001d44565b93506200219c6020860162001d44565b925060408501359150606085013567ffffffffffffffff811115620021c057600080fd5b8501601f81018713620021d257600080fd5b620021e38782356020840162001e3c565b91505092959194509250565b6000602082840312156200220257600080fd5b813567ffffffffffffffff8111156200221a57600080fd5b620008b98482850162001e9a565b600080604083850312156200223c57600080fd5b620022478362001d44565b9150620022576020840162001d44565b90509250929050565b600181811c908216806200227557607f821691505b6020821081036200229657634e487b7160e01b600052602260045260246000fd5b50919050565b6020808252602d908201527f4552433732313a2063616c6c6572206973206e6f7420746f6b656e206f776e6560408201526c1c881bdc88185c1c1c9bdd9959609a1b606082015260800190565b634e487b7160e01b600052601160045260246000fd5b8082028115828204841417620004f457620004f4620022e9565b6000826200233757634e487b7160e01b600052601260045260246000fd5b500490565b634e487b7160e01b600052603260045260246000fd5b6001600160601b03818116838216019080821115620023755762002375620022e9565b5092915050565b60006001600160601b038083168181036200239b576200239b620022e9565b6001019392505050565b604080825283519082018190526000906020906060840190828701845b82811015620023e95781516001600160a01b031684529284019290840190600101620023c2565b5050508381038285015284518082528583019183019060005b81811015620024295783516001600160601b03168352928401929184019160010162002402565b5090979650505050505050565b600083516200244a81846020880162001cc1565b8351908301906200246081836020880162001cc1565b01949350505050565b60208082526025908201527f4552433732313a207472616e736665722066726f6d20696e636f72726563742060408201526437bbb732b960d91b606082015260800190565b601f821115620006dc57600081815260208120601f850160051c81016020861015620024d75750805b601f850160051c820191505b81811015620024f857828155600101620024e3565b505050505050565b815167ffffffffffffffff8111156200251d576200251d62001df2565b62002535816200252e845462002260565b84620024ae565b602080601f8311600181146200256d5760008415620025545750858301515b600019600386901b1c1916600185901b178555620024f8565b600085815260208120601f198616915b828110156200259e578886015182559484019460019091019084016200257d565b5085821015620025bd5787850151600019600388901b60f8161c191681555b5050505050600190811b01905550565b6020808252602a908201527f455243323938313a20726f79616c7479206665652077696c6c206578636565646040820152692073616c65507269636560b01b606082015260800190565b60208082526032908201527f4552433732313a207472616e7366657220746f206e6f6e20455243373231526560408201527131b2b4bb32b91034b6b83632b6b2b73a32b960711b606082015260800190565b6001600160a01b03858116825284166020820152604081018390526080606082018190526000906200269e9083018462001ce7565b9695505050505050565b600060208284031215620026bb57600080fd5b81516200185e8162001c8a56fe60806040523480156200001157600080fd5b50604051620012e4380380620012e48339810160408190526200003491620004b0565b6200003f336200013d565b8051825114620000ad576040805162461bcd60e51b8152602060048201526024810191909152600080516020620012c483398151915260448201527f697665727320616e6420536861726573206c656e677468206d69736d6174636860648201526084015b60405180910390fd5b60005b8251816001600160601b0316101562000134576200011f83826001600160601b031681518110620000e557620000e56200058e565b602002602001015183836001600160601b0316815181106200010b576200010b6200058e565b60200260200101516200018d60201b60201c565b806200012b81620005ba565b915050620000b0565b50505062000615565b600080546001600160a01b038381166001600160a01b0319831681178455604051919092169283917f8be0079c531659141344cd1fd0a4f28419497f9722a3daafe3b4186f6b6457e09190a35050565b6200019762000359565b6001600160a01b038216620002045760405162461bcd60e51b81526020600482015260346024820152600080516020620012c483398151915260448201527f69766572206973207a65726f20616464726573730000000000000000000000006064820152608401620000a4565b6000816001600160601b031611620002715760405162461bcd60e51b815260206004820152602960248201527f53686f70796368616e67655061796d656e7453706c69747465723a205368617260448201526865206973207a65726f60b81b6064820152608401620000a4565b604080516060810182526001600160a01b0384811682526001600160601b03848116602084019081526000948401858152600280546001810182558188529551925192909416600160a01b9284168302177f405787fa12a823e0f2b7631cc41b3ba8828b3321ca811111fa75cd3aa3bb5ace959094029485019390935591517f405787fa12a823e0f2b7631cc41b3ba8828b3321ca811111fa75cd3aa3bb5acf9093019290925582548493926014926200033192869291900416620005eb565b92506101000a8154816001600160601b0302191690836001600160601b031602179055505050565b6000546001600160a01b03163314620003b55760405162461bcd60e51b815260206004820181905260248201527f4f776e61626c653a2063616c6c6572206973206e6f7420746865206f776e65726044820152606401620000a4565b565b634e487b7160e01b600052604160045260246000fd5b604051601f8201601f191681016001600160401b0381118282101715620003f857620003f8620003b7565b604052919050565b60006001600160401b038211156200041c576200041c620003b7565b5060051b60200190565b600082601f8301126200043857600080fd5b81516020620004516200044b8362000400565b620003cd565b82815260059290921b840181019181810190868411156200047157600080fd5b8286015b84811015620004a55780516001600160601b0381168114620004975760008081fd5b835291830191830162000475565b509695505050505050565b60008060408385031215620004c457600080fd5b82516001600160401b0380821115620004dc57600080fd5b818501915085601f830112620004f157600080fd5b81516020620005046200044b8362000400565b82815260059290921b840181019181810190898411156200052457600080fd5b948201945b838610156200055b5785516001600160a01b03811681146200054b5760008081fd5b8252948201949082019062000529565b918801519196509093505050808211156200057557600080fd5b50620005848582860162000426565b9150509250929050565b634e487b7160e01b600052603260045260246000fd5b634e487b7160e01b600052601160045260246000fd5b60006001600160601b038281166002600160601b03198101620005e157620005e1620005a4565b6001019392505050565b6001600160601b038181168382160190808211156200060e576200060e620005a4565b5092915050565b610c9f80620006256000396000f3fe60806040526004361061008a5760003560e01c8063715018a611610059578063715018a6146101635780638b6a1595146101785780638da5cb5b14610198578063e061646b146101c0578063f2fde38b146101e257600080fd5b80632977c166146100ce57806362b85d96146100f057806366399484146101235780636a2364281461014357600080fd5b366100c957604080513381523460208201527f6ef95f06320e7a25a04a175ca677b7052bdd97131872c2192525a629f51be770910160405180910390a1005b600080fd5b3480156100da57600080fd5b506100ee6100e9366004610a90565b610202565b005b3480156100fc57600080fd5b5061011061010b366004610a90565b61043c565b6040519081526020015b60405180910390f35b34801561012f57600080fd5b5061011061013e366004610a90565b6104a5565b34801561014f57600080fd5b506100ee61015e366004610ac2565b6104dc565b34801561016f57600080fd5b506100ee6106a8565b34801561018457600080fd5b506100ee610193366004610a90565b6106bc565b3480156101a457600080fd5b506000546040516001600160a01b03909116815260200161011a565b3480156101cc57600080fd5b506101d5610883565b60405161011a9190610af5565b3480156101ee57600080fd5b506100ee6101fd366004610b60565b610910565b60006002826001600160601b03168154811061022057610220610b7b565b6000918252602090912060029091020154600160a01b90046001600160601b0316116102a25760405162461bcd60e51b815260206004820152602660248201527f5061796d656e7453706c69747465723a206163636f756e7420686173206e6f2060448201526573686172657360d01b60648201526084015b60405180910390fd5b60006102ad8261043c565b9050806000036103135760405162461bcd60e51b815260206004820152602b60248201527f5061796d656e7453706c69747465723a206163636f756e74206973206e6f742060448201526a191d59481c185e5b595b9d60aa1b6064820152608401610299565b80600160008282546103259190610ba7565b92505081905550806002836001600160601b03168154811061034957610349610b7b565b9060005260206000209060020201600101600082825401925050819055506002826001600160601b03168154811061038357610383610b7b565b600091825260208220600290910201546040516001600160a01b039091169183156108fc02918491818181858888f193505050501580156103c8573d6000803e3d6000fd5b507fdf20fd1e76bc69d672e4814fafb2c449bba3a5369d8359adf9e05e6fde87b0566002836001600160601b03168154811061040657610406610b7b565b600091825260209182902060029091020154604080516001600160a01b0390921682529181018490520160405180910390a15050565b6000806001544761044d9190610ba7565b905061049e6002846001600160601b03168154811061046e5761046e610b7b565b6000918252602090912060029091020154600160a01b90046001600160601b031682610499866104a5565b610989565b9392505050565b60006002826001600160601b0316815481106104c3576104c3610b7b565b9060005260206000209060020201600101549050919050565b6104e46109ca565b6001600160a01b0382166105575760405162461bcd60e51b815260206004820152603460248201527f53686f70796368616e67655061796d656e7453706c69747465723a205265636560448201527369766572206973207a65726f206164647265737360601b6064820152608401610299565b6000816001600160601b0316116105c25760405162461bcd60e51b815260206004820152602960248201527f53686f70796368616e67655061796d656e7453706c69747465723a205368617260448201526865206973207a65726f60b81b6064820152608401610299565b604080516060810182526001600160a01b0384811682526001600160601b03848116602084019081526000948401858152600280546001810182558188529551925192909416600160a01b9284168302177f405787fa12a823e0f2b7631cc41b3ba8828b3321ca811111fa75cd3aa3bb5ace959094029485019390935591517f405787fa12a823e0f2b7631cc41b3ba8828b3321ca811111fa75cd3aa3bb5acf90930192909255825484939260149261068092869291900416610bc0565b92506101000a8154816001600160601b0302191690836001600160601b031602179055505050565b6106b06109ca565b6106ba6000610a24565b565b6106c46109ca565b6002546001600160601b038216106107365760405162461bcd60e51b815260206004820152602f60248201527f53686f70796368616e67655061796d656e7453706c69747465723a20496e646560448201526e78206f7574206f6620626f756e647360881b6064820152608401610299565b6002816001600160601b03168154811061075257610752610b7b565b6000918252602082206002909102015481546001600160601b03600160a01b928390048116939260149261078b92869290910416610be7565b92506101000a8154816001600160601b0302191690836001600160601b03160217905550600260016002805490506107c39190610c07565b815481106107d3576107d3610b7b565b90600052602060002090600202016002826001600160601b0316815481106107fd576107fd610b7b565b600091825260209091208254600292830290910180546001600160a01b0319166001600160a01b03909216918217815583546001600160601b03600160a01b918290041602909117815560019283015492019190915580548061086257610862610c1a565b60008281526020812060026000199093019283020181815560010155905550565b60606002805480602002602001604051908101604052809291908181526020016000905b82821015610907576000848152602090819020604080516060810182526002860290920180546001600160a01b0381168452600160a01b90046001600160601b0316838501526001908101549183019190915290835290920191016108a7565b50505050905090565b6109186109ca565b6001600160a01b03811661097d5760405162461bcd60e51b815260206004820152602660248201527f4f776e61626c653a206e6577206f776e657220697320746865207a65726f206160448201526564647265737360d01b6064820152608401610299565b61098681610a24565b50565b6000805482906001600160601b03600160a01b9091048116906109ae90871686610c30565b6109b89190610c47565b6109c29190610c07565b949350505050565b6000546001600160a01b031633146106ba5760405162461bcd60e51b815260206004820181905260248201527f4f776e61626c653a2063616c6c6572206973206e6f7420746865206f776e65726044820152606401610299565b600080546001600160a01b038381166001600160a01b0319831681178455604051919092169283917f8be0079c531659141344cd1fd0a4f28419497f9722a3daafe3b4186f6b6457e09190a35050565b80356001600160601b0381168114610a8b57600080fd5b919050565b600060208284031215610aa257600080fd5b61049e82610a74565b80356001600160a01b0381168114610a8b57600080fd5b60008060408385031215610ad557600080fd5b610ade83610aab565b9150610aec60208401610a74565b90509250929050565b602080825282518282018190526000919060409081850190868401855b82811015610b5357815180516001600160a01b03168552868101516001600160601b0316878601528501518585015260609093019290850190600101610b12565b5091979650505050505050565b600060208284031215610b7257600080fd5b61049e82610aab565b634e487b7160e01b600052603260045260246000fd5b634e487b7160e01b600052601160045260246000fd5b80820180821115610bba57610bba610b91565b92915050565b6001600160601b03818116838216019080821115610be057610be0610b91565b5092915050565b6001600160601b03828116828216039080821115610be057610be0610b91565b81810381811115610bba57610bba610b91565b634e487b7160e01b600052603160045260246000fd5b8082028115828204841417610bba57610bba610b91565b600082610c6457634e487b7160e01b600052601260045260246000fd5b50049056fea26469706673582212206068825b5c358d1bc3e93eb9fb234c4fcd752eb300273c07061b7b64c6085f7964736f6c6343000812003353686f70796368616e67655061796d656e7453706c69747465723a2052656365a264697066735822122072cf6f4b7ac02a0f8bfaef469f09ca5d1adc1bba2383313d54b860d34edea6c964736f6c6343000812003360806040523480156200001157600080fd5b50604051620012e4380380620012e48339810160408190526200003491620004b0565b6200003f336200013d565b8051825114620000ad576040805162461bcd60e51b8152602060048201526024810191909152600080516020620012c483398151915260448201527f697665727320616e6420536861726573206c656e677468206d69736d6174636860648201526084015b60405180910390fd5b60005b8251816001600160601b0316101562000134576200011f83826001600160601b031681518110620000e557620000e56200058e565b602002602001015183836001600160601b0316815181106200010b576200010b6200058e565b60200260200101516200018d60201b60201c565b806200012b81620005ba565b915050620000b0565b50505062000615565b600080546001600160a01b038381166001600160a01b0319831681178455604051919092169283917f8be0079c531659141344cd1fd0a4f28419497f9722a3daafe3b4186f6b6457e09190a35050565b6200019762000359565b6001600160a01b038216620002045760405162461bcd60e51b81526020600482015260346024820152600080516020620012c483398151915260448201527f69766572206973207a65726f20616464726573730000000000000000000000006064820152608401620000a4565b6000816001600160601b031611620002715760405162461bcd60e51b815260206004820152602960248201527f53686f70796368616e67655061796d656e7453706c69747465723a205368617260448201526865206973207a65726f60b81b6064820152608401620000a4565b604080516060810182526001600160a01b0384811682526001600160601b03848116602084019081526000948401858152600280546001810182558188529551925192909416600160a01b9284168302177f405787fa12a823e0f2b7631cc41b3ba8828b3321ca811111fa75cd3aa3bb5ace959094029485019390935591517f405787fa12a823e0f2b7631cc41b3ba8828b3321ca811111fa75cd3aa3bb5acf9093019290925582548493926014926200033192869291900416620005eb565b92506101000a8154816001600160601b0302191690836001600160601b031602179055505050565b6000546001600160a01b03163314620003b55760405162461bcd60e51b815260206004820181905260248201527f4f776e61626c653a2063616c6c6572206973206e6f7420746865206f776e65726044820152606401620000a4565b565b634e487b7160e01b600052604160045260246000fd5b604051601f8201601f191681016001600160401b0381118282101715620003f857620003f8620003b7565b604052919050565b60006001600160401b038211156200041c576200041c620003b7565b5060051b60200190565b600082601f8301126200043857600080fd5b81516020620004516200044b8362000400565b620003cd565b82815260059290921b840181019181810190868411156200047157600080fd5b8286015b84811015620004a55780516001600160601b0381168114620004975760008081fd5b835291830191830162000475565b509695505050505050565b60008060408385031215620004c457600080fd5b82516001600160401b0380821115620004dc57600080fd5b818501915085601f830112620004f157600080fd5b81516020620005046200044b8362000400565b82815260059290921b840181019181810190898411156200052457600080fd5b948201945b838610156200055b5785516001600160a01b03811681146200054b5760008081fd5b8252948201949082019062000529565b918801519196509093505050808211156200057557600080fd5b50620005848582860162000426565b9150509250929050565b634e487b7160e01b600052603260045260246000fd5b634e487b7160e01b600052601160045260246000fd5b60006001600160601b038281166002600160601b03198101620005e157620005e1620005a4565b6001019392505050565b6001600160601b038181168382160190808211156200060e576200060e620005a4565b5092915050565b610c9f80620006256000396000f3fe60806040526004361061008a5760003560e01c8063715018a611610059578063715018a6146101635780638b6a1595146101785780638da5cb5b14610198578063e061646b146101c0578063f2fde38b146101e257600080fd5b80632977c166146100ce57806362b85d96146100f057806366399484146101235780636a2364281461014357600080fd5b366100c957604080513381523460208201527f6ef95f06320e7a25a04a175ca677b7052bdd97131872c2192525a629f51be770910160405180910390a1005b600080fd5b3480156100da57600080fd5b506100ee6100e9366004610a90565b610202565b005b3480156100fc57600080fd5b5061011061010b366004610a90565b61043c565b6040519081526020015b60405180910390f35b34801561012f57600080fd5b5061011061013e366004610a90565b6104a5565b34801561014f57600080fd5b506100ee61015e366004610ac2565b6104dc565b34801561016f57600080fd5b506100ee6106a8565b34801561018457600080fd5b506100ee610193366004610a90565b6106bc565b3480156101a457600080fd5b506000546040516001600160a01b03909116815260200161011a565b3480156101cc57600080fd5b506101d5610883565b60405161011a9190610af5565b3480156101ee57600080fd5b506100ee6101fd366004610b60565b610910565b60006002826001600160601b03168154811061022057610220610b7b565b6000918252602090912060029091020154600160a01b90046001600160601b0316116102a25760405162461bcd60e51b815260206004820152602660248201527f5061796d656e7453706c69747465723a206163636f756e7420686173206e6f2060448201526573686172657360d01b60648201526084015b60405180910390fd5b60006102ad8261043c565b9050806000036103135760405162461bcd60e51b815260206004820152602b60248201527f5061796d656e7453706c69747465723a206163636f756e74206973206e6f742060448201526a191d59481c185e5b595b9d60aa1b6064820152608401610299565b80600160008282546103259190610ba7565b92505081905550806002836001600160601b03168154811061034957610349610b7b565b9060005260206000209060020201600101600082825401925050819055506002826001600160601b03168154811061038357610383610b7b565b600091825260208220600290910201546040516001600160a01b039091169183156108fc02918491818181858888f193505050501580156103c8573d6000803e3d6000fd5b507fdf20fd1e76bc69d672e4814fafb2c449bba3a5369d8359adf9e05e6fde87b0566002836001600160601b03168154811061040657610406610b7b565b600091825260209182902060029091020154604080516001600160a01b0390921682529181018490520160405180910390a15050565b6000806001544761044d9190610ba7565b905061049e6002846001600160601b03168154811061046e5761046e610b7b565b6000918252602090912060029091020154600160a01b90046001600160601b031682610499866104a5565b610989565b9392505050565b60006002826001600160601b0316815481106104c3576104c3610b7b565b9060005260206000209060020201600101549050919050565b6104e46109ca565b6001600160a01b0382166105575760405162461bcd60e51b815260206004820152603460248201527f53686f70796368616e67655061796d656e7453706c69747465723a205265636560448201527369766572206973207a65726f206164647265737360601b6064820152608401610299565b6000816001600160601b0316116105c25760405162461bcd60e51b815260206004820152602960248201527f53686f70796368616e67655061796d656e7453706c69747465723a205368617260448201526865206973207a65726f60b81b6064820152608401610299565b604080516060810182526001600160a01b0384811682526001600160601b03848116602084019081526000948401858152600280546001810182558188529551925192909416600160a01b9284168302177f405787fa12a823e0f2b7631cc41b3ba8828b3321ca811111fa75cd3aa3bb5ace959094029485019390935591517f405787fa12a823e0f2b7631cc41b3ba8828b3321ca811111fa75cd3aa3bb5acf90930192909255825484939260149261068092869291900416610bc0565b92506101000a8154816001600160601b0302191690836001600160601b031602179055505050565b6106b06109ca565b6106ba6000610a24565b565b6106c46109ca565b6002546001600160601b038216106107365760405162461bcd60e51b815260206004820152602f60248201527f53686f70796368616e67655061796d656e7453706c69747465723a20496e646560448201526e78206f7574206f6620626f756e647360881b6064820152608401610299565b6002816001600160601b03168154811061075257610752610b7b565b6000918252602082206002909102015481546001600160601b03600160a01b928390048116939260149261078b92869290910416610be7565b92506101000a8154816001600160601b0302191690836001600160601b03160217905550600260016002805490506107c39190610c07565b815481106107d3576107d3610b7b565b90600052602060002090600202016002826001600160601b0316815481106107fd576107fd610b7b565b600091825260209091208254600292830290910180546001600160a01b0319166001600160a01b03909216918217815583546001600160601b03600160a01b918290041602909117815560019283015492019190915580548061086257610862610c1a565b60008281526020812060026000199093019283020181815560010155905550565b60606002805480602002602001604051908101604052809291908181526020016000905b82821015610907576000848152602090819020604080516060810182526002860290920180546001600160a01b0381168452600160a01b90046001600160601b0316838501526001908101549183019190915290835290920191016108a7565b50505050905090565b6109186109ca565b6001600160a01b03811661097d5760405162461bcd60e51b815260206004820152602660248201527f4f776e61626c653a206e6577206f776e657220697320746865207a65726f206160448201526564647265737360d01b6064820152608401610299565b61098681610a24565b50565b6000805482906001600160601b03600160a01b9091048116906109ae90871686610c30565b6109b89190610c47565b6109c29190610c07565b949350505050565b6000546001600160a01b031633146106ba5760405162461bcd60e51b815260206004820181905260248201527f4f776e61626c653a2063616c6c6572206973206e6f7420746865206f776e65726044820152606401610299565b600080546001600160a01b038381166001600160a01b0319831681178455604051919092169283917f8be0079c531659141344cd1fd0a4f28419497f9722a3daafe3b4186f6b6457e09190a35050565b80356001600160601b0381168114610a8b57600080fd5b919050565b600060208284031215610aa257600080fd5b61049e82610a74565b80356001600160a01b0381168114610a8b57600080fd5b60008060408385031215610ad557600080fd5b610ade83610aab565b9150610aec60208401610a74565b90509250929050565b602080825282518282018190526000919060409081850190868401855b82811015610b5357815180516001600160a01b03168552868101516001600160601b0316878601528501518585015260609093019290850190600101610b12565b5091979650505050505050565b600060208284031215610b7257600080fd5b61049e82610aab565b634e487b7160e01b600052603260045260246000fd5b634e487b7160e01b600052601160045260246000fd5b80820180821115610bba57610bba610b91565b92915050565b6001600160601b03818116838216019080821115610be057610be0610b91565b5092915050565b6001600160601b03828116828216039080821115610be057610be0610b91565b81810381811115610bba57610bba610b91565b634e487b7160e01b600052603160045260246000fd5b8082028115828204841417610bba57610bba610b91565b600082610c6457634e487b7160e01b600052601260045260246000fd5b50049056fea26469706673582212206068825b5c358d1bc3e93eb9fb234c4fcd752eb300273c07061b7b64c6085f7964736f6c6343000812003353686f70796368616e67655061796d656e7453706c69747465723a2052656365",
  "linkReferences": {},
  "deployedLinkReferences": {}
}