{
  "_format": "hh-sol-artifact-1",
  "contractName": "ShopychangePaymentSplitter",
  "sourceName": "contracts/ShopychangePaymentSplitter/ShopychangePaymentSplitter.sol",
  "abi": [
    {
      "inputs": [
        {
          "internalType": "address[]",
          "name": "receivers",
          "type": "address[]"
        },
        {
          "internalType": "uint96[]",
          "name": "_shares",
          "type": "uint96[]"
        }
      ],
      "stateMutability": "nonpayable",
      "type": "constructor"
    },
    {
      "anonymous": false,
      "inputs": [
        {
          "indexed": true,
          "internalType": "address",
          "name": "previousOwner",
          "type": "address"
        },
        {
          "indexed": true,
          "internalType": "address",
          "name": "newOwner",
          "type": "address"
        }
      ],
      "name": "OwnershipTransferred",
      "type": "event"
    },
    {
      "anonymous": false,
      "inputs": [
        {
          "indexed": false,
          "internalType": "address",
          "name": "from",
          "type": "address"
        },
        {
          "indexed": false,
          "internalType": "uint256",
          "name": "amount",
          "type": "uint256"
        }
      ],
      "name": "PaymentReceived",
      "type": "event"
    },
    {
      "anonymous": false,
      "inputs": [
        {
          "indexed": false,
          "internalType": "address",
          "name": "to",
          "type": "address"
        },
        {
          "indexed": false,
          "internalType": "uint256",
          "name": "amount",
          "type": "uint256"
        }
      ],
      "name": "PaymentReleased",
      "type": "event"
    },
    {
      "inputs": [
        {
          "internalType": "address",
          "name": "_receiver",
          "type": "address"
        },
        {
          "internalType": "uint96",
          "name": "_share",
          "type": "uint96"
        }
      ],
      "name": "addReceiver",
      "outputs": [],
      "stateMutability": "nonpayable",
      "type": "function"
    },
    {
      "inputs": [],
      "name": "getReceivers",
      "outputs": [
        {
          "components": [
            {
              "internalType": "address",
              "name": "receiver",
              "type": "address"
            },
            {
              "internalType": "uint96",
              "name": "share",
              "type": "uint96"
            },
            {
              "internalType": "uint256",
              "name": "released",
              "type": "uint256"
            }
          ],
          "internalType": "struct ShopychangePaymentSplitter.Receiver[]",
          "name": "",
          "type": "tuple[]"
        }
      ],
      "stateMutability": "view",
      "type": "function"
    },
    {
      "inputs": [],
      "name": "owner",
      "outputs": [
        {
          "internalType": "address",
          "name": "",
          "type": "address"
        }
      ],
      "stateMutability": "view",
      "type": "function"
    },
    {
      "inputs": [
        {
          "internalType": "uint96",
          "name": "_index",
          "type": "uint96"
        }
      ],
      "name": "releasable",
      "outputs": [
        {
          "internalType": "uint256",
          "name": "",
          "type": "uint256"
        }
      ],
      "stateMutability": "view",
      "type": "function"
    },
    {
      "inputs": [
        {
          "internalType": "uint96",
          "name": "_index",
          "type": "uint96"
        }
      ],
      "name": "release",
      "outputs": [],
      "stateMutability": "nonpayable",
      "type": "function"
    },
    {
      "inputs": [
        {
          "internalType": "uint96",
          "name": "_index",
          "type": "uint96"
        }
      ],
      "name": "released",
      "outputs": [
        {
          "internalType": "uint256",
          "name": "",
          "type": "uint256"
        }
      ],
      "stateMutability": "view",
      "type": "function"
    },
    {
      "inputs": [
        {
          "internalType": "uint96",
          "name": "_index",
          "type": "uint96"
        }
      ],
      "name": "removeReceiver",
      "outputs": [],
      "stateMutability": "nonpayable",
      "type": "function"
    },
    {
      "inputs": [],
      "name": "renounceOwnership",
      "outputs": [],
      "stateMutability": "nonpayable",
      "type": "function"
    },
    {
      "inputs": [
        {
          "internalType": "address",
          "name": "newOwner",
          "type": "address"
        }
      ],
      "name": "transferOwnership",
      "outputs": [],
      "stateMutability": "nonpayable",
      "type": "function"
    },
    {
      "stateMutability": "payable",
      "type": "receive"
    }
  ],
  "bytecode": "0x60806040523480156200001157600080fd5b50604051620012e4380380620012e48339810160408190526200003491620004b0565b6200003f336200013d565b8051825114620000ad576040805162461bcd60e51b8152602060048201526024810191909152600080516020620012c483398151915260448201527f697665727320616e6420536861726573206c656e677468206d69736d6174636860648201526084015b60405180910390fd5b60005b8251816001600160601b0316101562000134576200011f83826001600160601b031681518110620000e557620000e56200058e565b602002602001015183836001600160601b0316815181106200010b576200010b6200058e565b60200260200101516200018d60201b60201c565b806200012b81620005ba565b915050620000b0565b50505062000615565b600080546001600160a01b038381166001600160a01b0319831681178455604051919092169283917f8be0079c531659141344cd1fd0a4f28419497f9722a3daafe3b4186f6b6457e09190a35050565b6200019762000359565b6001600160a01b038216620002045760405162461bcd60e51b81526020600482015260346024820152600080516020620012c483398151915260448201527f69766572206973207a65726f20616464726573730000000000000000000000006064820152608401620000a4565b6000816001600160601b031611620002715760405162461bcd60e51b815260206004820152602960248201527f53686f70796368616e67655061796d656e7453706c69747465723a205368617260448201526865206973207a65726f60b81b6064820152608401620000a4565b604080516060810182526001600160a01b0384811682526001600160601b03848116602084019081526000948401858152600280546001810182558188529551925192909416600160a01b9284168302177f405787fa12a823e0f2b7631cc41b3ba8828b3321ca811111fa75cd3aa3bb5ace959094029485019390935591517f405787fa12a823e0f2b7631cc41b3ba8828b3321ca811111fa75cd3aa3bb5acf9093019290925582548493926014926200033192869291900416620005eb565b92506101000a8154816001600160601b0302191690836001600160601b031602179055505050565b6000546001600160a01b03163314620003b55760405162461bcd60e51b815260206004820181905260248201527f4f776e61626c653a2063616c6c6572206973206e6f7420746865206f776e65726044820152606401620000a4565b565b634e487b7160e01b600052604160045260246000fd5b604051601f8201601f191681016001600160401b0381118282101715620003f857620003f8620003b7565b604052919050565b60006001600160401b038211156200041c576200041c620003b7565b5060051b60200190565b600082601f8301126200043857600080fd5b81516020620004516200044b8362000400565b620003cd565b82815260059290921b840181019181810190868411156200047157600080fd5b8286015b84811015620004a55780516001600160601b0381168114620004975760008081fd5b835291830191830162000475565b509695505050505050565b60008060408385031215620004c457600080fd5b82516001600160401b0380821115620004dc57600080fd5b818501915085601f830112620004f157600080fd5b81516020620005046200044b8362000400565b82815260059290921b840181019181810190898411156200052457600080fd5b948201945b838610156200055b5785516001600160a01b03811681146200054b5760008081fd5b8252948201949082019062000529565b918801519196509093505050808211156200057557600080fd5b50620005848582860162000426565b9150509250929050565b634e487b7160e01b600052603260045260246000fd5b634e487b7160e01b600052601160045260246000fd5b60006001600160601b038281166002600160601b03198101620005e157620005e1620005a4565b6001019392505050565b6001600160601b038181168382160190808211156200060e576200060e620005a4565b5092915050565b610c9f80620006256000396000f3fe60806040526004361061008a5760003560e01c8063715018a611610059578063715018a6146101635780638b6a1595146101785780638da5cb5b14610198578063e061646b146101c0578063f2fde38b146101e257600080fd5b80632977c166146100ce57806362b85d96146100f057806366399484146101235780636a2364281461014357600080fd5b366100c957604080513381523460208201527f6ef95f06320e7a25a04a175ca677b7052bdd97131872c2192525a629f51be770910160405180910390a1005b600080fd5b3480156100da57600080fd5b506100ee6100e9366004610a90565b610202565b005b3480156100fc57600080fd5b5061011061010b366004610a90565b61043c565b6040519081526020015b60405180910390f35b34801561012f57600080fd5b5061011061013e366004610a90565b6104a5565b34801561014f57600080fd5b506100ee61015e366004610ac2565b6104dc565b34801561016f57600080fd5b506100ee6106a8565b34801561018457600080fd5b506100ee610193366004610a90565b6106bc565b3480156101a457600080fd5b506000546040516001600160a01b03909116815260200161011a565b3480156101cc57600080fd5b506101d5610883565b60405161011a9190610af5565b3480156101ee57600080fd5b506100ee6101fd366004610b60565b610910565b60006002826001600160601b03168154811061022057610220610b7b565b6000918252602090912060029091020154600160a01b90046001600160601b0316116102a25760405162461bcd60e51b815260206004820152602660248201527f5061796d656e7453706c69747465723a206163636f756e7420686173206e6f2060448201526573686172657360d01b60648201526084015b60405180910390fd5b60006102ad8261043c565b9050806000036103135760405162461bcd60e51b815260206004820152602b60248201527f5061796d656e7453706c69747465723a206163636f756e74206973206e6f742060448201526a191d59481c185e5b595b9d60aa1b6064820152608401610299565b80600160008282546103259190610ba7565b92505081905550806002836001600160601b03168154811061034957610349610b7b565b9060005260206000209060020201600101600082825401925050819055506002826001600160601b03168154811061038357610383610b7b565b600091825260208220600290910201546040516001600160a01b039091169183156108fc02918491818181858888f193505050501580156103c8573d6000803e3d6000fd5b507fdf20fd1e76bc69d672e4814fafb2c449bba3a5369d8359adf9e05e6fde87b0566002836001600160601b03168154811061040657610406610b7b565b600091825260209182902060029091020154604080516001600160a01b0390921682529181018490520160405180910390a15050565b6000806001544761044d9190610ba7565b905061049e6002846001600160601b03168154811061046e5761046e610b7b565b6000918252602090912060029091020154600160a01b90046001600160601b031682610499866104a5565b610989565b9392505050565b60006002826001600160601b0316815481106104c3576104c3610b7b565b9060005260206000209060020201600101549050919050565b6104e46109ca565b6001600160a01b0382166105575760405162461bcd60e51b815260206004820152603460248201527f53686f70796368616e67655061796d656e7453706c69747465723a205265636560448201527369766572206973207a65726f206164647265737360601b6064820152608401610299565b6000816001600160601b0316116105c25760405162461bcd60e51b815260206004820152602960248201527f53686f70796368616e67655061796d656e7453706c69747465723a205368617260448201526865206973207a65726f60b81b6064820152608401610299565b604080516060810182526001600160a01b0384811682526001600160601b03848116602084019081526000948401858152600280546001810182558188529551925192909416600160a01b9284168302177f405787fa12a823e0f2b7631cc41b3ba8828b3321ca811111fa75cd3aa3bb5ace959094029485019390935591517f405787fa12a823e0f2b7631cc41b3ba8828b3321ca811111fa75cd3aa3bb5acf90930192909255825484939260149261068092869291900416610bc0565b92506101000a8154816001600160601b0302191690836001600160601b031602179055505050565b6106b06109ca565b6106ba6000610a24565b565b6106c46109ca565b6002546001600160601b038216106107365760405162461bcd60e51b815260206004820152602f60248201527f53686f70796368616e67655061796d656e7453706c69747465723a20496e646560448201526e78206f7574206f6620626f756e647360881b6064820152608401610299565b6002816001600160601b03168154811061075257610752610b7b565b6000918252602082206002909102015481546001600160601b03600160a01b928390048116939260149261078b92869290910416610be7565b92506101000a8154816001600160601b0302191690836001600160601b03160217905550600260016002805490506107c39190610c07565b815481106107d3576107d3610b7b565b90600052602060002090600202016002826001600160601b0316815481106107fd576107fd610b7b565b600091825260209091208254600292830290910180546001600160a01b0319166001600160a01b03909216918217815583546001600160601b03600160a01b918290041602909117815560019283015492019190915580548061086257610862610c1a565b60008281526020812060026000199093019283020181815560010155905550565b60606002805480602002602001604051908101604052809291908181526020016000905b82821015610907576000848152602090819020604080516060810182526002860290920180546001600160a01b0381168452600160a01b90046001600160601b0316838501526001908101549183019190915290835290920191016108a7565b50505050905090565b6109186109ca565b6001600160a01b03811661097d5760405162461bcd60e51b815260206004820152602660248201527f4f776e61626c653a206e6577206f776e657220697320746865207a65726f206160448201526564647265737360d01b6064820152608401610299565b61098681610a24565b50565b6000805482906001600160601b03600160a01b9091048116906109ae90871686610c30565b6109b89190610c47565b6109c29190610c07565b949350505050565b6000546001600160a01b031633146106ba5760405162461bcd60e51b815260206004820181905260248201527f4f776e61626c653a2063616c6c6572206973206e6f7420746865206f776e65726044820152606401610299565b600080546001600160a01b038381166001600160a01b0319831681178455604051919092169283917f8be0079c531659141344cd1fd0a4f28419497f9722a3daafe3b4186f6b6457e09190a35050565b80356001600160601b0381168114610a8b57600080fd5b919050565b600060208284031215610aa257600080fd5b61049e82610a74565b80356001600160a01b0381168114610a8b57600080fd5b60008060408385031215610ad557600080fd5b610ade83610aab565b9150610aec60208401610a74565b90509250929050565b602080825282518282018190526000919060409081850190868401855b82811015610b5357815180516001600160a01b03168552868101516001600160601b0316878601528501518585015260609093019290850190600101610b12565b5091979650505050505050565b600060208284031215610b7257600080fd5b61049e82610aab565b634e487b7160e01b600052603260045260246000fd5b634e487b7160e01b600052601160045260246000fd5b80820180821115610bba57610bba610b91565b92915050565b6001600160601b03818116838216019080821115610be057610be0610b91565b5092915050565b6001600160601b03828116828216039080821115610be057610be0610b91565b81810381811115610bba57610bba610b91565b634e487b7160e01b600052603160045260246000fd5b8082028115828204841417610bba57610bba610b91565b600082610c6457634e487b7160e01b600052601260045260246000fd5b50049056fea26469706673582212206068825b5c358d1bc3e93eb9fb234c4fcd752eb300273c07061b7b64c6085f7964736f6c6343000812003353686f70796368616e67655061796d656e7453706c69747465723a2052656365",
  "linkReferences": {},
  "deployedLinkReferences": {}
}